:020000040800F2
:1000000070060020750100087D0100087F010008CE
:10001000810100088301000885010008000000003C
:100020000000000000000000000000008701000840
:1000300089010008000000008B0100088D01000804
:100040008F0100088F0100088F0100088F01000850
:100050008F0100088F0100088F0100088F01000840
:100060008F0100088F0100088F0100088F01000830
:100070008F0100088F0100088F0100088F01000820
:100080008F0100088F0100088F0100088F01000810
:100090008F0100088F0100088F0100088F01000800
:1000A0008F0100088F0100088F0100088F010008F0
:1000B0008F0100088F0100088F0100088F010008E0
:1000C0008F0100088F0100088F0100088F010008D0
:1000D0008F0100088F0100088F0100088F010008C0
:1000E0008F0100088F0100088F01000800F002F85E
:1000F00000F030F80AA090E8000C82448344AAF192
:100100000107DA4501D100F025F8AFF2090EBAE88F
:100110000F0013F0010F18BFFB1A43F0010318473B
:10012000540D0000640D000000230024002500266B
:10013000103A28BF78C1FBD8520728BF30C148BF4A
:100140000B6070471FB59DE8030000F0A9F81FBDC4
:1001500010B510BD00F000F91146FFF7F3FF00F0F5
:100160004FFE00F01EF903B4FFF7F2FF03BC00F0EE
:100170004FF900000948804709480047FEE7FEE7BD
:10018000FEE7FEE7FEE7FEE7FEE7FEE7FEE7FEE747
:1001900004480549054A064B70470000090C000851
:1001A000ED000008700000207006002070020020A2
:1001B0007002002070B5064600F056F8056806F19A
:1001C0000B0020F00704B4429CBF002070BD2B46FA
:1001D0006A68BAB11068A04210D304F108018842DD
:1001E0003CBF5068586007D35168101941601168CE
:1001F000091B016058601460101D70BD13465268E1
:10020000002AE7D12146284600F036F80028DED142
:1002100070BD70B50446051F00F026F80068002C7C
:1002200014BF446870BD002C18BFAC423CBF2046D0
:100230006468F8D301680A18AA4218BF456003D160
:100240002A6805461144016028684119A1421CBF73
:100250006C6070BD6168696021680844286070BD89
:100260007047704770470000004870471400002036
:10027000704770477047704738B504460A460020FB
:100280006946AFF30080002808BF38BD02460099D8
:10029000204600F03FF8012038BD012000F054B89E
:1002A000F8B5AFF30080054600200C46102000BFD3
:1002B0000646A819A0420DD9324669460020AFF380
:1002C0000080070008BF00F03FF80098A04218BF68
:1002D0000546C419FFF7C8FF05600746F01D20F06A
:1002E00007004619284600F00AF8B44208BFF8BDD6
:1002F000A21B31463868BDE8F84000F00BB8002179
:100300000160C0E901107047102070470048704735
:100310000C000020034640688C46002818BF884225
:100320003CBF03464068F8D318681844884207D099
:100330000CF1030020F00700001D411A521A01467B
:10034000081D0A60FFF765BF10B500F039F8BDE879
:10035000104000F02FB870477546FFF7D7FFAE4644
:1003600005006946534620F00700854618B020B5C1
:10037000FFF70EFFBDE820404FF000064FF00007EA
:100380004FF000084FF0000B21F00701AC46ACE83D
:10039000C009ACE8C009ACE8C009ACE8C0098D46AA
:1003A000704710B50446AFF300802046BDE810400A
:1003B000FFF7D9BE002801D000F02AB8704700002E
:1003C00010B5012805D0002103A000F027F8012076
:1003D00010BD09A1F8E7000053494752544D454D5F
:1003E0003A204F7574206F662068656170206D65D6
:1003F0006D6F7279000000003A2048656170206DD1
:10040000656D6F727920636F7272757074656400C8
:1004100001491820ABBEFEE72600020070B5054674
:100420000C460A2000E06D1C00F011F835B1287868
:100430000028F8D102E0641C00F009F814B120781B
:100440000028F8D1BDE870400A20AFF3008008B55D
:1004500069468DF800000320ABBE08BD10B5002131
:10046000837A012202FA03F13D4A126842F0010246
:100470003B4B1A603A4A1C3212688A43384B1C3391
:100480001A60027BCAB9364A0C3212688A43344B6E
:100490000C331A604288C38842EA0343304A403230
:1004A000847A42F834300288838842EA03432C4A33
:1004B0004032847A02EBC4025360027B012A19D1D4
:1004C000274A0C3212680A43254B0C331A604288C3
:1004D000038842EA0343224A4032847A42F83430A5
:1004E000C288838842EA03431D4A4032847A02EB81
:1004F000C4025360C27A3AB9194A121D12688A437B
:10050000174B1B1D1A6006E0154A121D12680A439C
:10051000134B1B1D1A60028932B9114A143212683A
:100520008A430F4B14331A600289012A06D10C4A00
:10053000143212680A430A4B14331A60427B012AB0
:1005400006D1074A1C3212680A43054B1C331A6055
:10055000034A126822F00102014B1A6010BD00002C
:100560000066004030B5024600200023146824F0E5
:1005700002041460146844F00104146000E05B1C81
:10058000546804F001041CB94FF6FF74A342F6D17D
:10059000546804F001040CB900206CE08C79012C43
:1005A00004D1146844F08004146003E0146824F05B
:1005B00080041460CC79012C04D1146844F0400408
:1005C000146003E0146824F0400414600C7A012CD9
:1005D00004D1146844F02004146003E0146824F08B
:1005E000200414604C7A012C04D1146844F01004E7
:1005F000146003E0146824F0100414608C7A012C59
:1006000004D1146844F00804146003E0146824F072
:1006100008041460CC7A012C04D1146844F004045A
:10062000146003E0146824F0040414608C78A407B8
:10063000CD7844EA05640D7944EA05444D7944EAED
:1006400005540D886D1E2C43D461146824F00104F8
:100650001460002300E05B1C546804F001041CB12A
:100660004FF6FF74A342F6D1546804F001040CB1B4
:10067000002000E0012030BD0246002019B9D368F7
:1006800003F0030006E0012903D1136903F003001E
:1006900000E00020704710B500F5D87303EB01139C
:1006A0001B6803F004031372137A53B900F5D8736F
:1006B00003EB01131B6840F2FF7404EA5353136009
:1006C00009E000F5D87303EB01131B686FF0604479
:1006D00004EAD303536000F5D87303EB01131B68DE
:1006E00003F00203537200F5D87303EB01135B6848
:1006F00003F00F03937200F5D87303EB01135B68EB
:100700001B0AD37400F5D87303EB01139B68D372F3
:1007100000F5D87303EB01139B681C0A147300F5F2
:10072000D87303EB01139B681C0C547300F5D8734A
:1007300003EB01139B681B0E937300F5D87303EB57
:100740000113DB68D37300F5D87303EB0113DB6887
:100750001C0A147400F5D87303EB0113DB681C0C3E
:10076000547400F5D87303EB0113DB681B0E93740C
:1007700021B9C36843F02003C36003E0036943F079
:100780002003036110BD10B500F0E1F801218807D6
:1007900000F06AFA00214FF0804000F074FA00BFC8
:1007A0004FF0804000F06CFA48F6A0418842F7DB39
:1007B00000214FF0804000F057FA10BD10B50446FC
:1007C00001E0FFF7E0FF201EA4F10104F9D110BD04
:1007D0002DE9F041024600250026002000230024D8
:1007E000002791F803C00CF00F0591F803C00CF03E
:1007F000100CBCF1000F03D091F802C04CEA0505C3
:1008000091F800C0BCF1000F31D0146800202BE03B
:100810004FF0010C0CFA00F3B1F800C00CEA03062B
:100820009E4220D183004FF00F0C0CFA03F7BC431B
:1008300005FA03FC4CEA040491F803C0BCF1280F4C
:1008400006D14FF0010C0CFA00FCC2F814C00AE00B
:1008500091F803C0BCF1480F05D14FF0010C0CFA20
:1008600000FCC2F810C0401C0828D1D31460B1F8B5
:1008700000C0BCF1FF0F34DD546800202EE000F111
:10088000080C4FF0010808FA0CF3B1F800C00CEAAC
:1008900003069E4221D183004FF00F0C0CFA03F7A0
:1008A000BC4305FA03FC4CEA040491F803C0BCF114
:1008B000280F05D100F1080C08FA0CF8C2F81480D2
:1008C00091F803C0BCF1480F07D100F1080C4FF0BC
:1008D000010808FA0CF8C2F81080401C0828CED392
:1008E0005460BDE8F081000008B50121142000F03B
:1008F00007F900220B210F4800F024F800224FF4E2
:1009000060410D4800F01EF810208DF803000F2004
:10091000ADF8000001208DF8020069460548FFF798
:1009200057FF4FF46040ADF8000069460248FFF7FA
:100930004FFF08BD000801400010014041617047B1
:10094000016170470AB1016100E0416170470EB575
:100950000121084600F0C4F80020ADF80200012093
:10096000ADF800004FF6FF70ADF8040069464FF097
:10097000804000F08BF90EBD10B54FF400410748E0
:10098000FFF7DEFF0220FFF719FF4FF40041034895
:10099000FFF7D4FF0220FFF711FF10BD0010014048
:1009A00070B506460C461CB906F18000C5B204E0DD
:1009B000012C02D106F1C000C5B2284600F082F831
:1009C00070BD000010B5FFF78FFF002000F05CF84D
:1009D00000224FF400510F48FFF7B4FF032000F04E
:1009E00053F8FFF7C9FFFFF7C7FFFFF7C5FF022066
:1009F00000F04AF8FFF7C0FF282000F063F80C2051
:100A000000F060F8062000F05DF8012000F05AF8D0
:100A100010BD0000001001402DE9F04106460C46D3
:100A200027463846FFF7C6FB0546002003E0315C49
:100A300030312954401CA042F9DB284600F018F858
:100A40002846FFF7E6FBBDE8F081000010B504463C
:100A50004FF400510548FFF773FF204600F032F8CD
:100A60004FF400510148FFF769FF10BD001001402D
:100A700010B5044603E02078FFF7E8FF641C2078F7
:100A80000028F8D110BD000010B5044604F00102A2
:100A900001210B48FFF756FFC4F34002022108482A
:100AA000FFF750FFC4F3800204210548FFF74AFF17
:100AB000C4F3C00208210248FFF744FF10BD000044
:100AC0000008014010B504462011FFF7DDFFFFF7D5
:100AD00053FF2046FFF7D8FFFFF74EFF10BD000081
:100AE00029B1064AD2690243044BDA6104E0034AA1
:100AF000D2698243014BDA61704700000010024066
:100B000029B1064A92690243044B9A6104E0034A00
:100B100092698243014B9A617047000000100240C5
:100B200010B500F001F810BD0CB500200190009048
:100B30003348006840F480303149086000BF3048D5
:100B4000006800F4003000900198401C019000986B
:100B500018B90198B0F5A06FF1D12948006800F4E8
:100B6000003010B10120009001E0002000900098BA
:100B7000012843D12348006840F010002149086053
:100B80000846006820F0070008600846006840F04A
:100B9000020008601A4840681949486008464068E1
:100BA00048600846406840F48060486008464068F5
:100BB00020F47C1048600846406840F4E810486023
:100BC0000846006840F08070086000BF0C4800686C
:100BD00000F000700028F9D00948406820F00300B8
:100BE000074948600846406840F00200486000BF7E
:100BF0000348406800F00C000828F9D10CBD000043
:100C0000001002400020024010B51348006840F078
:100C100001001149086008464068104908400E4923
:100C20004860084600680E4908400B4908600846BD
:100C3000006820F4802008600846406820F4FE0028
:100C400048604FF41F008860FFF76AFF4FF00060B4
:100C50000449086010BD0000001002400000FFF8C9
:100C6000FFFFF6FE08ED00E021B1028842F001022C
:100C7000028004E002884FF6FE731A40028070473B
:100C80000146888C704781847047000000220288EA
:100C90001D4B98420ED01D4B98420BD0B0F1804FA7
:100CA00008D01B4B984205D01A4B984202D01A4BE1
:100CB000984204D14FF68F731A404B881A43174B52
:100CC000984207D0164B984204D04FF6FF431A4083
:100CD000CB881A4302808B8883850B8803850A4B57
:100CE00098420BD0094B984208D00E4B984205D041
:100CF0000D4B984202D00D4B984201D10B7A0386DE
:100D00000123838270470000002C01400034014021
:100D10000004004000080040000C004000100040AB
:100D200000140040004001400044014000480140E0
:100D300010B588B0044601214806FFF7D1FE002017
:100D40008DF81B008DF81C008DF81D008DF81E001D
:100D50008DF81A008DF81F008DF816008DF8170019
:100D600002208DF8180004208DF81900ADF8140049
:100D700005A91248FFF7F6FB00208DF80E008DF84C
:100D80000F0001208DF810004FF6FF7000EA4410AC
:100D9000ADF804000020ADF806004FF6FF70ADF886
:100DA00008000020ADF80A00ADF80C0001208DF815
:100DB000110001A8FFF752FB08B010BD006400400D
:100DC00008B501210420FFF79BFE48208DF80300A1
:100DD0004FF40060ADF8000003208DF802001820E9
:100DE0008DF803004FF48050ADF8000003208DF81B
:100DF000020069460148FFF7EBFC08BD000801400E
:100E0000FFF7DEFF40F22310FFF792FFFFF7DAFD56
:100E10000DE000F00FF800210846FFF7C1FD0A21A0
:100E20000348FFF7F9FD4FF49670FFF7C7FCF0E7B2
:100E30000000002000B585B000BF00210B48FFF77F
:100E40001BFC0128F9DB6A4600210848FFF723FC58
:100E5000002005E00DF10B01095C054A1154401C0E
:100E60009DF80A108142F5DC05B000BD0064004029
:100E700000000020840E0008000000207006000022
:040E8000280100083D
:040000050800017579
:00000001FF
