:020000040800F2
:10000000600600206D0100087501000877010008F6
:10001000790100087B0100087D0100080000000054
:100020000000000000000000000000007F01000848
:10003000810100080000000083010008850100081C
:100040008701000887010008870100088701000870
:100050008701000887010008870100088701000860
:100060008701000887010008870100088701000850
:100070008701000887010008870100088701000840
:100080008701000887010008870100088701000830
:100090008701000887010008870100088701000820
:1000A0008701000887010008870100088701000810
:1000B000410800088701000887010008870100083F
:1000C00087010008870100088701000887010008F0
:1000D00087010008870100088701000887010008E0
:1000E00087010008870100088701000800F002F876
:1000F00000F02CF80AA090E8000C82448344AAF196
:100100000107DA4501D100F021F8AFF2090EBAE893
:100110000F0013F0010F18BFFB1A43F0010318473B
:10012000B8090000C80900000023002400250026AB
:10013000103A28BF78C1FBD8520728BF30C148BF4A
:100140000B6070471FB51FBD10B510BD00F031F832
:100150001146FFF7F7FF00F03FFC00F04FF803B443
:10016000FFF7F2FF03BC00F057F800000948804792
:1001700009480047FEE7FEE7FEE7FEE7FEE7FEE789
:10018000FEE7FEE7FEE7FEE704480549054A064BA1
:1001900070470000E1070008ED0000086000002043
:1001A0006006002060020020600200207047704757
:1001B0007047754600F02CF8AE4605006946534678
:1001C00020F00700854618B020B5FFF7DDFFBDE839
:1001D00020404FF000064FF000074FF000084FF0AE
:1001E000000B21F00701AC46ACE8C009ACE8C0093F
:1001F000ACE8C009ACE8C0098D46704710B50446AC
:10020000AFF300802046BDE81040FFF7A8BF000014
:10021000004870470000002001491820ABBEFEE7EF
:10022000260002007047000010B5002479E04FF46A
:1002300080613D4800F035F94FF4FA7000F091F814
:100240004FF48061384800F02AF94FF4FA7000F05A
:1002500088F84FF40061344800F023F94FF4FA7045
:1002600000F07FF84FF400612F4800F018F94FF4C8
:10027000FA7000F076F820212B4800F012F94FF4C4
:10028000FA7000F06EF82021274800F008F94FF4CA
:10029000FA7000F066F84021234800F002F94FF4AC
:1002A000FA7000F05EF840211F4800F0F8F84FF4B3
:1002B000FA7000F056F880211B4800F0F2F84FF475
:1002C000FA7000F04EF88021174800F0E8F84FF47B
:1002D000FA7000F046F84FF48071134800F0E1F82E
:1002E0004FF4FA7000F03DF84FF480710E4800F0C2
:1002F000D6F84FF4FA7000F034F84FF400710A4861
:1003000000F0CFF84FF4FA7000F02BF84FF40071C2
:10031000054800F0C4F84FF4FA7000F022F8601CB1
:10032000C4B2022C83DB10BD000C014010B500F0FC
:10033000BAF80121880700F0A8FA00214FF08040A8
:1003400000F0CCFA00BF4FF0804000F0AAFA48F667
:10035000A0418842F7DB00214FF0804000F095FA81
:1003600010BD10B5044601E0FFF7E0FF201EA4F128
:100370000104F9D110BD2DE9F04102460025002607
:10038000002000230024002791F803C00CF00F0583
:1003900091F803C00CF0100CBCF1000F03D091F8E1
:1003A00002C04CEA050591F800C0BCF1000F31D045
:1003B000146800202BE04FF0010C0CFA00F3B1F8A8
:1003C00000C00CEA03069E4220D183004FF00F0CC0
:1003D0000CFA03F7BC4305FA03FC4CEA040491F859
:1003E00003C0BCF1280F06D14FF0010C0CFA00FC41
:1003F000C2F814C00AE091F803C0BCF1480F05D15F
:100400004FF0010C0CFA00FCC2F810C0401C082888
:10041000D1D31460B1F800C0BCF1FF0F34DD5468D3
:1004200000202EE000F1080C4FF0010808FA0CF350
:10043000B1F800C00CEA03069E4221D183004FF0C0
:100440000F0C0CFA03F7BC4305FA03FC4CEA040456
:1004500091F803C0BCF1280F05D100F1080C08FA8F
:100460000CF8C2F8148091F803C0BCF1480F07D112
:1004700000F1080C4FF0010808FA0CF8C2F81080DF
:10048000401C0828CED35460BDE8F081024600200D
:1004900093680B400BB1012000E0002070474161E0
:1004A0007047016170470EB50121084600F004F95C
:1004B0000020ADF802000120ADF800004FF6FF70FB
:1004C000ADF8040069464FF0804000F009FA0EBD17
:1004D00010B5002461E04FF480613148FFF7E1FF7F
:1004E0004FF400712E48FFF7DCFF4FF4FA70FFF76E
:1004F00038FF4FF480612A48FFF7D1FF4FF40071B5
:100500002748FFF7CCFF4FF4FA70FFF72AFF4FF4AC
:1005100000612348FFF7C5FF4FF480712048FFF7C3
:10052000C0FF4FF4FA70FFF71CFF4FF400611C4846
:10053000FFF7B5FF4FF480711948FFF7B0FF4FF494
:10054000FA70FFF70EFF20211548FFF7AAFF802160
:100550001348FFF7A6FF4FF4FA70FFF702FF2021C0
:100560000F48FFF79CFF80210D48FFF798FF4FF4DD
:10057000FA70FFF7F6FE40210948FFF792FF4FF4AB
:10058000FA70FFF7EEFE40210548FFF788FF4FF4B1
:10059000FA70FFF7E6FE601CC4B2032C9BDB10BDB3
:1005A000000C014010B5002449E04FF4806125485B
:1005B000FFF777FF80212348FFF773FF20212148B1
:1005C000FFF76FFF4FF400711E48FFF76AFF4FF40B
:1005D00000611C48FFF763FF40211A48FFF75FFFE7
:1005E0004FF480711748FFF75AFF4FF47A70FFF706
:1005F000B8FE4FF400611348FFF753FF4021114844
:10060000FFF74FFF4FF480710E48FFF74AFF4FF49A
:1006100080610C48FFF743FF20210A48FFF73FFFA6
:1006200080210848FFF73BFF4FF400710548FFF7B2
:1006300036FF4FF47A70FFF794FE601CC4B2032CAF
:10064000B3DB10BD000C014070B5002100230F2268
:10065000C47804B3154C246804F4E064C4F5E06481
:10066000210AC1F10403CA40447804FA03F18478F2
:100670001440214309010E4C0678A155047804F07A
:100680001F050124AC4005786D11AD0005F1E02592
:10069000C5F8004109E0047804F01F050124AC40CE
:1006A000044D0678761145F8264070BD0CED00E04B
:1006B00000E400E080E100E029B1064AD26902438B
:1006C000044BDA6104E0034AD2698243014BDA61E8
:1006D000704700000010024029B1064A92690243A7
:1006E000044B9A6104E0034A92698243014B9A6188
:1006F000704700000010024010B500F001F810BD76
:100700000CB50020019000903348006840F4803020
:100710003149086000BF3048006800F400300090A4
:100720000198401C0190009818B90198B0F5A06F8D
:10073000F1D12948006800F4003010B10120009088
:1007400001E0002000900098012843D12348006870
:1007500040F01000214908600846006820F00700BA
:1007600008600846006840F0020008601A484068C7
:10077000194948600846406848600846406840F4A7
:10078000806048600846406820F47C104860084655
:10079000406840F4E81048600846006840F0807007
:1007A000086000BF0C48006800F000700028F9D015
:1007B0000948406820F0030007494860084640683F
:1007C00040F00200486000BF0348406800F00C00A1
:1007D0000828F9D10CBD00000010024000200240A2
:1007E00010B51348006840F0010011490860084640
:1007F0004068104908400E494860084600680E49A4
:1008000008400B4908600846006820F48020086012
:100810000846406820F4FE0048604FF41F008860DE
:10082000FFF76AFF4FF000600449086010BD000048
:10083000001002400000FFF8FFFFF6FE08ED00E0A8
:1008400010B50121880700F02FF8C0B108210C482D
:10085000FFF71CFE08B9FFF7E7FC10210848FFF777
:1008600015FE08B9FFF734FE20210548FFF70EFEFC
:1008700008B9FFF797FE0121880700F003F810BDC3
:1008800000080140CA430282704721B1028842F049
:100890000102028004E002884FF6FE731A400280D3
:1008A00070470146888C704730B50246002000230F
:1008B0000024158A05EA0103958905EA010413B1AC
:1008C0000CB1012000E0002030BD1AB183890B4338
:1008D000838102E083898B438381704781847047E1
:1008E000002202881D4B98420ED01D4B98420BD01F
:1008F000B0F1804F08D01B4B984205D01A4B98425C
:1009000002D01A4B984204D14FF68F731A404B888D
:100910001A43174B984207D0164B984204D04FF613
:10092000FF431A40CB881A4302808B8883850B884B
:1009300003850A4B98420BD0094B984208D00E4BC6
:10094000984205D00D4B984202D00D4B984201D1F0
:100950000B7A03860123838270470000002C01403C
:10096000003401400004004000080040000C00403A
:1009700000100040001400400040014000440140CD
:10098000004801401CB501210420FFF7A5FE4820C6
:100990008DF807003820ADF8040002208DF806001D
:1009A00001A90B48FFF7E7FC01210820FFF794FE9F
:1009B00010208DF803004FF47E60ADF80000022097
:1009C0008DF8020069460348FFF7D5FC1CBD000006
:1009D00000080140000C0140FFF7D4FF00F04CF884
:1009E00047E04FF480612348FFF75BFD4FF400615F
:1009F0002048FFF756FD20211E48FFF752FD4021F9
:100A00001C48FFF74EFD80211A48FFF74AFD4FF4BE
:100A100080711848FFF745FD4FF400711548FFF746
:100A200040FD4FF47A70FFF79CFC4FF48061114851
:100A3000FFF735FD4FF400610E48FFF730FD202130
:100A40000C48FFF72CFD40210A48FFF728FD8021C4
:100A50000848FFF724FD4FF480710648FFF71FFD9B
:100A60004FF400710348FFF71AFD4FF47A70FFF757
:100A700078FCB6E7000C01401FB501210846FFF7DE
:100A80001BFE0020ADF80600C720ADF8080040F6B8
:100A90000F60ADF804000020ADF80A0001A94FF086
:100AA0008040FFF71DFF012211469007FFF70DFF61
:100AB00001218807FFF7E9FE1C208DF800000020C7
:100AC0008DF801008DF8020001208DF803006846C2
:100AD000FFF7BAFD1FBD0000E80A00080000002073
:080AE000600600002801000877
:040000050800016D81
:00000001FF
