:020000040800F2
:10000000900700206D0100087501000877010008C5
:10001000790100087B0100087D0100080000000054
:100020000000000000000000000000007F01000848
:10003000810100080000000083010008850100081C
:100040008701000887010008870100088701000870
:10005000870100088701000887010008690300087C
:100060008701000887010008870100088701000850
:100070008701000887010008870100088701000840
:100080008701000887010008870100088701000830
:100090008701000887010008870100088701000820
:1000A0008701000887010008870100088701000810
:1000B0008701000887010008870100088701000800
:1000C00087010008870100088701000887010008F0
:1000D00087010008870100088701000887010008E0
:1000E00087010008870100088701000800F002F876
:1000F00000F02CF80AA090E8000C82448344AAF196
:100100000107DA4501D100F021F8AFF2090EBAE893
:100110000F0013F0010F18BFFB1A43F0010318473B
:1001200030120000401200000023002400250026A9
:10013000103A28BF78C1FBD8520728BF30C148BF4A
:100140000B6070471FB51FBD10B510BD00F07AF8E9
:100150001146FFF7F7FF00F091FE00F098F803B4A6
:10016000FFF7F2FF03BC00F09FF80000094880474A
:1001700009480047FEE7FEE7FEE7FEE7FEE7FEE789
:10018000FEE7FEE7FEE7FEE704480549054A064BA1
:10019000704700005D0D0008ED0000089001002090
:1001A0009007002090030020900300204FF00002F1
:1001B0000429C0F0128010F0030C00F01E80CCF176
:1001C000040CBCF1020F18BF00F8012BA8BF20F8E7
:1001D000022BA1EB0C0100F010B85FEAC17C24BF38
:1001E00000F8012B00F8012B48BF00F8012B7047E5
:1001F0007047704770474FF0000200B513469446B1
:100200009646203922BFA0E80C50A0E80C50B1F16E
:100210002001BFF4F7AF090728BFA0E80C5048BF82
:100220000CC05DF804EB890028BF40F8042B08BF20
:10023000704748BF20F8022B11F0804F18BF00F81C
:10024000012B7047754600F02BF8AE460500694655
:10025000534620F00700854618B020B5FFF794FFFD
:10026000BDE820404FF000064FF000074FF00008B7
:100270004FF0000BAC46ACE8C009ACE8C009ACE8F4
:10028000C009ACE8C00921F007018D46704710B5E0
:100290000446AFF300802046BDE81040FFF75FBF83
:1002A000004870470000002001491820ABBEFEE75F
:1002B000260002007047000010B500F03DF94FF035
:1002C0008040012100F076FD4FF08040002100F0D9
:1002D0007DFD48F6A04400BF4FF0804000F074FD63
:1002E000A042F9D34FF08040002100F063FD10BD23
:1002F00010B5002808BF10BD044600BF013CFFF741
:10030000DBFF002CFAD110BDB0B584B0082001216C
:10031000012400F0E3FB04208DF80F0040F60040BC
:100320000225C4F2010003A9ADF80C5000F0A6F8B4
:100330000120012100F0D2FB0120012100F086F80C
:100340004FF40060ADF8080001A801958DF80A404F
:1003500000F034F840F60770C0F20F1000906846C5
:1003600000F080FB04B0B0BD80B5022000F016F8AC
:1003700050B140F2600040F28C01C2F20000C2F2C3
:1003800000010A2200F0EAF9022000F001F880BD25
:1003900040F21441C4F201010860704740F200418C
:1003A000C4F201010A6849690240084018BF0120EF
:1003B000002A18BF012210407047000081790029EF
:1003C00040F20041C4F201011FD002680B68934360
:1003D0000B604B6893434B60037943EA010CDCF8F4
:1003E00000301A43CCF8002002688B6893438B607E
:1003F000CB689343CB60407910280ED188681043B6
:100400008860C8681043C86070470279006811436B
:100410000A6822EA00000860704708430168114337
:100420000160704780B582B00820012100F056FBC2
:100430000120C1F20300019040F60040C4F2010027
:1004400001A900F01BF802B080BD000010B50C221D
:10045000082402EA810201F0FC01C4F201044FF019
:100460000F0C51F804E00CFA02F32EEA03030B51CF
:100470000B5990401843085110BD00002DE9F04180
:10048000CA7802F00F0CD30644BF8B784CEA030CF9
:1004900009880B0621D0056800234FF001084FF0B2
:1004A0000F0E002608E000BF282A08BF476101366A
:1004B000082E03F104030FD008FA06F70F42F6D016
:1004C0000EFA03F425EA04040CFA03F5482A45EA77
:1004D0000405E9D10761EAE70560B1F5807F38BF1F
:1004E000BDE8F081446800234FF4807E4FF00F0890
:1004F000002607E0282A08BF47610136082E03F1CD
:10050000040310D00EFA06F707EA0105BD42F4D144
:1005100008FA03F5AC430CFA03F5482A44EA05044B
:10052000E8D10761E9E74460BDE8F0811023002AC3
:1005300008BF1423C150704710B584B001200121B9
:10054000012400F0BFFA4FF6FF70ADF8080001A9D2
:100550004FF08040019400F03BFC04B010BD00005F
:10056000B0B582B00446154641F080020068A1880B
:100570008DF807200022FFF7D9FFA0690DF10701D0
:1005800089B200F061FB00BFA069022100F054FBBA
:100590000028F9D1A069A9B200F056FBA069022198
:1005A00000F04AFB0028F9D12068A1880122FFF75A
:1005B000BDFF02B0B0BD0000B0B50D46012104463C
:1005C00000F098F8062D02461DD8DFE805F0040873
:1005D0001C0D1C12170002F0F802002012E002F0BD
:1005E000F800421C01200DE002F0F800C21C0320BC
:1005F00008E002F0F800421D052003E002F0F800D8
:10060000821D0620E0612046012100F0F1F9B0BD15
:1006100070B500210446FFF7CFFF0A20FFF768FE00
:1006200020460121012600F065F805460A20FFF763
:100630005FFE45F080022046012100F0D9F96420D8
:10064000FFF756FE216A204600F0FAF894F82A10C7
:10065000204600F04DF994F82B10204600F022F9C6
:1006600020460C21232200F0C3F9204600F06AF94D
:1006700094F82410204600F045F920461F21FF225F
:1006800000F0B6F994F8260094F82510400000EB2D
:100690000110C2B220461D2100F0AAF9204600F048
:1006A000AFF894F829202046202100F0A1F994F811
:1006B00028202046212100F09BF92046402100F00F
:1006C00019F840F03F022046402100F091F9204601
:1006D0000121FFF771FF0A20E661FFF709FE2046BE
:1006E000422100F007F84FF4CA71122808BFC82150
:1006F000084670BD80B582B001F07F018DF807100B
:1007000000230DF107010022009300F003F8002000
:1007100002B080BDB0B50446A28800680D461146FF
:100720000022FFF703FFA069A9B200F08DFA00BF15
:10073000A069022100F080FA0028F9D1A06900F038
:1007400081FA00BFA069012100F076FA0028F9D1F2
:100750002068A1880122FFF7E9FEB0BDF0B581B0A5
:1007600016460D4604461AB128463146FFF71EFDCF
:1007700020460121FFF720FF20461221FFF7BAFF94
:10078000400601D400271FE020461221FF2200F07E
:100790002FF920461321FFF7ADFF07462046102111
:1007A000FFF7A8FF024620460D2100F021F9B742CD
:1007B00088BF374647B1002620460021FFF79AFF41
:1007C000A8550136BE42F7D320460521FFF7F4FEB7
:1007D000384601B0F0BD000010B504468068A1891C
:1007E0000022FFF7A3FE0120FFF782FDA068A18988
:1007F0000122FFF79BFE6420FFF77AFD10BD000089
:10080000B0B5044690F82400012194F8255001FA6F
:1008100000F000F008FD41F20032C0F6000202EBE9
:10082000C50352F835205B6800F076FB00F0CCFC85
:10083000002110282046C8BF012100F01FF8B0BDDC
:10084000B0B50C46C1F387020621054600F0D0F88A
:100850000520FFF74DFDA001C2B22846072100F098
:10086000C7F80520FFF744FD28460821002200F0C4
:10087000BFF80520FFF73CFDB0BD0000B0B50C4649
:1008800026210546FFF736FF40F00802002C08BF7E
:1008900000F0F7022846262100F0AAF80A20FFF708
:1008A00027FDB0BD2D2998BF2D21F02928BFF021AB
:1008B00078290AD846F267622D39C6F2666281FB52
:1008C0000212511001EBD27107E04CF6CD421E31FD
:1008D000CCF6CC42A1FB0212D10880B52031CAB2BD
:1008E0000B2100F085F80A20FFF702FD80BD000013
:1008F00080B50A46092100F07BF80A20FFF7F8FCD2
:1009000080BD000070B50D460C29A8BF0C251E2126
:100910000446072DD8BF0725FFF7ECFE06460A2040
:10092000FFF7E6FC06F00F0040EA0510C2B22046D1
:100930001E2100F05DF80A20FFF7DAFC2046FFF7E1
:100940005FFF70BD10B51E210446FFF7D3FE40F0D7
:10095000070220461E2100F04BF80A20FFF7C8FCD2
:1009600010BD000080B50521FFF726FE80BD000008
:100970002DE9F041D0F81C800C4601211E46174697
:100980000546FFF719FE28460E21FFF7B3FE024683
:1009900028460D2100F02CF8284622213A4600F086
:1009A00027F82846002122460023FFF7D9FD2846D4
:1009B0000321FFF701FE00BF28461221FFF79AFE30
:1009C000000706D4013E30040AD00120FFF790FC56
:1009D000F2E728461221FF2200F00AF8012600E083
:1009E000002628464146FFF7E7FD3046BDE8F08186
:1009F00080B582B041F080018DF806108DF8072097
:100A00004FF0000C0DF106010DF107030022CDF8A7
:100A100000C000F003F802B080BD000070B50446CD
:100A2000A28800680E46114600221D46FFF77EFD93
:100A3000A069B1B200F008F9A069022100F0FCF849
:100A40000028F9D1A069A9B200F0FEF8A06901213F
:100A500000F0F2F80028F9D12068A1880122FFF700
:100A600065FD70BD10B5C17800294EF20011CEF2BF
:100A700000011AD04EF60C52CEF200021268072383
:100A800023EA12220F23C2F1040C23FA02F2437864
:100A9000847890F800E003FA0CF322401A43120124
:100AA00001EB0E0383F8002300E08031007801237E
:100AB00000F01F0203FA02F2C0F3421041F82020B6
:100AC00010BD0000002941F21C01C4F202010A68B5
:100AD0000CBF22EA0000104308607047002941F271
:100AE0001801C4F202010A680CBF22EA0000104398
:100AF00008607047B0B586B004200121FFF7EEFF13
:100B0000102040F60004C1F60300C4F2010405AD54
:100B1000059020462946FFF7B1FC2020C1F60300CE
:100B2000059020462946FFF7A9FC4020C0F203406B
:100B3000059020462946FFF7A1FC8020C1F603005E
:100B4000059020462946FFF799FC4FF4805001217B
:100B5000FFF7C4FF4FF0827000904FF40030019017
:100B60004FF00070029020200390072004F52054DD
:100B7000ADF810006946204600F068F820460121D3
:100B800000F050F806B0B0BDB0B586B00820012125
:100B9000FFF7A4FF41F2000040F60044C0F203401A
:100BA000C4F2010405AD059020462946FFF766FC16
:100BB00042F20000C1F60300059020462946FFF7E7
:100BC0005DFC44F20000C0F2034005902046294637
:100BD000FFF754FC48F20000C1F6030005902046E0
:100BE0002946FFF74BFC4FF480400121FFF76AFFD5
:100BF0004FF082700090002001904FF00070029042
:100C0000102003900720A4F55444ADF81000694665
:100C1000204600F01BF82046012100F003F806B042
:100C2000B0BD00000288002942F0400308BF22F056
:100C300040030380704700000089084018BF01206E
:100C40007047000080897047818170472DE9F0412D
:100C500002880B8802F4415C4A88B1F804E043EA58
:100C60000C03CC881A430D8942EA0E024E892243B6
:100C70008F892A43B1F80E8032433A4342EA080290
:100C80000280828B22F400628283098A0182BDE89D
:100C9000F081000080B500F001F880BD82B041F223
:100CA00004000021C4F202000191009150F8041CDC
:100CB00041F4803140F8041C50F8041C01F4003168
:100CC0000091019901310191009919B90199B1F58A
:100CD000A06FF1D150F8041C890354BF00210121F9
:100CE00000910099012936D142F20001C4F20201BB
:100CF0000A6842F010020A600A6822F007020A60DD
:100D00000A6842F002020A6001680160016801603D
:100D1000016841F480610160016821F47C11016087
:100D2000016841F4E811016050F8041C41F0807141
:100D300040F8041C50F8041C8901FBD5016821F01F
:100D400003010160016841F002010160016801F0E6
:100D50000C010829FAD102B07047000080B541F2B9
:100D60000000C4F202000168002241F001010160AC
:100D70004168CFF6FF021140416001684FF6FF72F3
:100D8000CFF6F66211400160016821F48021016014
:100D9000416821F4FE0141604FF41F018160FFF7BB
:100DA00079FF4EF60850CEF200004FF0006101606E
:100DB00080BD00000288002942F0010308BF22F034
:100DC0000103038070470000808C70478184704766
:100DD00040F6FF33B0F800C0C4F2000398420FDCC5
:100DE000B0F1804F1ED040F20043C4F2000398429D
:100DF00018D040F60003C4F20003984212D016E067
:100E000040F60043C4F2000398420BD043F2004383
:100E1000C4F20103984205D042F60043C4F2010334
:100E2000984204D14B882CF0700243EA020C41F244
:100E3000004240F48063C4F20002934204D0CA88A6
:100E40002CF4407342EA030CA0F800C08A88828523
:100E5000A0F18042A2F596320B884FEAB222072A0F
:100E6000038507D8012303FA02F212F0E50F1CBF35
:100E7000097A01860121818270470000FFF7D2FACA
:100E8000FFF742FAFFF736FEFFF77EFEFFF754FB4F
:100E900040F20C1446F64D10C2F20004C6F66E0085
:100EA000206046F64E00C6F66160606040F6004085
:100EB00040F26005C4F20100C2F20005A0F5544101
:100EC0002860A86028610220A88240F2B110286240
:100ED00040F20770A8840A20A9614FF48051C7F638
:100EE000FF00A9800121A8622846A98185F8261063
:100EF000FFF772FC2846FFF78BFB2846FFF732FD11
:100F00002846214608226423FFF732FD4FF4FA7089
:100F1000FFF7EEF9F4E700002DE9C04130B4DFF847
:100F2000A0C23CEA111418BF3CEA131400F0EC8094
:100F30001CEA111481EA030544EAD57418BF1CEABF
:100F4000131500F0C780A4EB050404F17F7404F5C9
:100F500000344FF0004545EAC12145EAC32341EA88
:100F6000505143EA52534FEAC0204FEAC2229942FD
:100F700008BF904200F09C804FEA13650FF24016C4
:100F8000765D4FEA134506FB05F7C7F1807706FB50
:100F900007F74FEAD737A7FB03687642A7FB06CED1
:100FA000C8F5803838BFA8F1010807FB08E6A6FBA2
:100FB000028C4FF0000EE6FB03CEDCF1000CCEF10C
:100FC000004E38BFAEF1010EA6FB0C584FF00007E3
:100FD000E6FB0E87A1FB08C6A0FB07CE16EB0E06AC
:100FE0004FF0000545F10005E1FB076515F1E04E06
:100FF0007EBFA4F580345FEA46066D4116F1800796
:1010000045F100054FEA172747EA05674FEA15251E
:101010004FEA0666A6F1DE46B6F1805F1FD9384674
:1010200005EBC47124F0010C01EB0C11BCF1FE6F57
:1010300002D8F0BCBDE8008124425CBF01F5801EEF
:101040009EEAC47F02D4F0BCBDE80081244238D4BB
:10105000A1F1C041F0BCBDE8004100F049B94FEA40
:10106000D02040EA41504FEAD1214FEAD22242EA51
:1010700043524FEAD323A7FB028607FB036605FB17
:1010800002661EEA0E0F58BFA6EB0056B6EB0056DE
:101090004FEA520E4EEAC37E18EB0E0E56EB530E7D
:1010A000BDD518EB02085E417F1C55F10005B6E77F
:1010B0004FF480154FF000074FF000064FF0000886
:1010C000ADE701F1C04101F000414FF00000F0BC7C
:1010D000BDE800810CEA131511EA0C1F00D00CE0EA
:1010E00013EA0C1F00F025804FF0000081EA030195
:1010F00001F00041F0BCBDE80081F0BCBDE800415A
:1011000081EA030100F0F4B8F0BCBDE8004170B51D
:1011100000F0A0F8097EFC3E00F007B84FF0000098
:1011200081EA030101F00041704781EA030100F008
:10113000DFB8F0BCBDE8004122494FF00000704725
:10114000FFFDFBF9F7F5F4F2F0EEEDEBE9E8E6E48C
:10115000E3E1E0DEDDDBDAD8D7D5D4D3D1D0CFCD13
:10116000CCCBCAC8C7C6C5C4C2C1C0BFBEBDBCBB4C
:10117000BAB9B8B7B6B5B4B3B2B1B0AFAEADACAB47
:10118000AAA9A8A8A7A6A5A4A3A3A2A1A09F9F9E21
:101190009D9C9C9B9A9999989797969595949393D3
:1011A000929191908F8F8E8E8D8C8C8B8B8A89896A
:1011B00088888787868585848483838282818180ED
:1011C0000000FF070000F87F4FEA41034FEA535346
:1011D000A3F58063D3F11E03C8BFD3F1210C0CDD4E
:1011E0004FF0004242EAC12242EA505232FA03FC76
:1011F0008CEAE17CACEBE1707047102BC4BF00209F
:10120000704703F5787CBCF1FF3F04D06FF00042DB
:1012100082EA2100704770B500F01CF849922480E2
:1012200000207047F2E710F0004248BF4042B0FA99
:1012300080F310FA03F10AD0C3F11D0303F58063B4
:1012400002EB03524FEA415002EBD12170474FF0BD
:10125000000070470EF1020E2EF0030E5EF8046BD4
:10126000364205D4012A43EB030515F5001F12D8B9
:10127000012841EB010C1CF5001F0CD80ED14FEAE0
:10128000D17C0CEB4C0C0CF1020C15F5001F08BFC7
:101290004CEBD37C04E04FF0080C01E04FEAD37C28
:1012A0000CEB4C0526FA05F606F00706B6F1040C21
:1012B00006D20EEB860CBDE870404CF0010C604786
:1012C000DFE80CF0090B02024FF00041A1F500210C
:1012D0004FF0000070BD19461046012851EB010483
:1012E00018BFD4F5001484BF002001F0004170BD88
:1012F0000808A0F500114FEA310170470000000016
:101300003333333333331F40CDCCCCCCCCCC24401F
:101310003333333333332F40CDCCCCCCCCCC3440EF
:101320000000000000403F409A99999999D94440A3
:101330000000000000404F400000000000405F40FF
:101340000000000000406F400000000000407F40AF
:10135000601300080000002090070000280100082A
:04000005080000ED02
:00000001FF
