:020000040800F2
:10000000680600208901000891010008930100089A
:100010009501000897010008990100080000000000
:100020000000000000000000000000009B0100082C
:100030009D010008000000009F010008A1010008C8
:10004000A3010008A3010008A3010008A301000800
:10005000A3010008A3010008A3010008A3010008F0
:10006000A3010008A3010008A3010008A3010008E0
:10007000A3010008A3010008A3010008A3010008D0
:10008000A3010008A3010008A3010008A3010008C0
:10009000A3010008A3010008A3010008A3010008B0
:1000A000A3010008A3010008A3010008A3010008A0
:1000B000A3010008A3010008A3010008A301000890
:1000C000A3010008A3010008A3010008A301000880
:1000D000A3010008A3010008A3010008A301000870
:1000E000A3010008A3010008A301000800F002F822
:1000F00000F03AF80AA090E8000C82448344AAF188
:100100000107DA4501D100F02FF8AFF2090EBAE885
:100110000F0013F0010F18BFFB1A43F0010318473B
:100120009C080000BC080000103A24BF78C878C1C1
:10013000FAD8520724BF30C830C144BF04680C60ED
:10014000704700000023002400250026103A28BF35
:1001500078C1FBD8520728BF30C148BF0B60704739
:100160001FB51FBD10B510BD00F031F81146FFF7E7
:10017000F7FF00F0F1FB00F04FF803B4FFF7F2FFD8
:1001800003BC00F057F800000948804709480047C1
:10019000FEE7FEE7FEE7FEE7FEE7FEE7FEE7FEE737
:1001A000FEE7FEE704480549054A064B7047000094
:1001B00031080008ED0000086800002068060020F3
:1001C000680200206802002070477047704775463B
:1001D00000F02CF8AE4605006946534620F00700B3
:1001E000854618B020B5FFF7DDFFBDE820404FF091
:1001F00000064FF000074FF000084FF0000B21F011
:100200000701AC46ACE8C009ACE8C009ACE8C009DD
:10021000ACE8C0098D46704710B50446AFF30080C6
:100220002046BDE81040FFF7A8BF00000048704717
:100230000400002001491820ABBEFEE726000200A2
:10024000704721B1826842F00102826003E0826857
:1002500022F001028260704700B585B0012148029A
:1002600000F0FEF901208DF80500002003904FF406
:1002700060200290002000908DF810008DF804009E
:100280006946124800F03CF80523012200210F487E
:1002900000F05EF801210D48FFF7D3FF0B4800F096
:1002A000B3F800BF094800F021F80028FAD1074848
:1002B00000F0BAF800BF054800F00AF80028FAD1AB
:1002C0000121024800F0A5F805B000BD002401405E
:1002D000014600208A6802F004020AB1012000E011
:1002E000002070470146C86C80B27047014600206C
:1002F0008A6802F008020AB1012000E0002070477D
:1003000030B502460020002350680F4C20400D7984
:100310000C6844EA05242043506090680B4C204050
:10032000D1E902542C434D7944EA450420439060BE
:10033000D06A20F470000C7C641EE4B2234340EACF
:100340000350D06230BD0000FFFEF0FFFDF7F1FF6B
:10035000F0B504460D4600200021092D11DDE068AE
:10036000A5F10A0606EB4607072606FA07F18843B9
:10037000A5F10A0606EB460603FA06F10843E0601B
:100380000CE0206905EB4507072606FA07F18843CC
:1003900005EB450603FA06F108432061072A0FDA48
:1003A000606B561E06EB86071F2606FA07F1884388
:1003B000561E06EB860605FA06F10843606322E046
:1003C0000D2A0FDA206BD61F06EB86071F2606FACA
:1003D00007F18843D61F06EB860605FA06F10843A7
:1003E000206310E0E06AA2F10D0606EB86071F26E7
:1003F00006FA07F18843A2F10D0606EB860605FA18
:1004000006F10843E062F0BD816841F008018160B7
:10041000704721B1826842F4A002826003E08268E2
:1004200022F4A00282607047816841F0040181607B
:10043000704710B500F0EFF80121880700F028FAA6
:1004400000214FF0804000F032FA00BF4FF08040B2
:1004500000F02AFA48F6A0418842F7DB00214FF06D
:10046000804000F015FA10BD10B5044601E0FFF71A
:10047000E0FF201EA4F10104F9D110BD08B501214F
:10048000082000F0EDF810208DF803000002ADF810
:10049000000002208DF802006946164800F02CF892
:1004A00018208DF803004FF40050ADF80000022032
:1004B0008DF8020069460F4800F01EF804208DF800
:1004C00003000003ADF8000002208DF80200694629
:1004D000084800F011F818208DF803004FF4004090
:1004E000ADF8000002208DF802006946014800F0D6
:1004F00003F808BD000C01402DE9F041024600253B
:100500000026002000230024002791F803C00CF0EF
:100510000F0591F803C00CF0100CBCF1000F03D0D4
:1005200091F802C04CEA050591F800C0BCF1000F3B
:1005300031D0146800202BE04FF0010C0CFA00F3CE
:10054000B1F800C00CEA03069E4220D183004FF0B0
:100550000F0C0CFA03F7BC4305FA03FC4CEA040445
:1005600091F803C0BCF1280F06D14FF0010C0CFA32
:1005700000FCC2F814C00AE091F803C0BCF1480FB7
:1005800005D14FF0010C0CFA00FCC2F810C0401C61
:100590000828D1D31460B1F800C0BCF1FF0F34DDDE
:1005A000546800202EE000F1080C4FF0010808FA12
:1005B0000CF3B1F800C00CEA03069E4221D183007F
:1005C0004FF00F0C0CFA03F7BC4305FA03FC4CEA9E
:1005D000040491F803C0BCF1280F05D100F1080C08
:1005E00008FA0CF8C2F8148091F803C0BCF1480F67
:1005F00007D100F1080C4FF0010808FA0CF8C2F816
:100600001080401C0828CED35460BDE8F0814161C1
:100610007047016170470EB50121084600F010F8DF
:100620000020ADF802000120ADF800004FF6FF7089
:10063000ADF8040069464FF0804000F03BF90EBD74
:1006400029B1064AD2690243044BDA6104E0034A45
:10065000D2698243014BDA6170470000001002400A
:1006600029B1064A92690243044B9A6104E0034AA5
:1006700092698243014B9A6170470000001002406A
:1006800021B1028842F04002028004E002884FF665
:10069000BF731A40028070470246002013890B4046
:1006A0000BB1012000E0002070478181704710B538
:1006B0000022028802F441520B884C8823438C8824
:1006C0002343CC8823430C8923434C8923438C89BF
:1006D0002343CC8923431A430280838B4FF2FF7458
:1006E000234083830B8A038210BD000000B585B0D0
:1006F00001218803FFF7A4FF4FF48270ADF80200D8
:100700000020ADF800001820ADF80C000020ADF876
:100710000600ADF80800ADF804008020ADF80E002A
:100720000720ADF810004FF40070ADF80A006946DC
:100730000448FFF7BCFF01210248FFF7A1FF05B005
:1007400000BD00000038004010B500F001F810BDF9
:100750000CB50020019000903348006840F48030D0
:100760003149086000BF3048006800F40030009054
:100770000198401C0190009818B90198B0F5A06F3D
:10078000F1D12948006800F4003010B10120009038
:1007900001E0002000900098012843D12348006820
:1007A00040F01000214908600846006820F007006A
:1007B00008600846006840F0020008601A48406877
:1007C000194948600846406848600846406840F457
:1007D000806048600846406820F47C104860084605
:1007E000406840F4E81048600846006840F08070B7
:1007F000086000BF0C48006800F000700028F9D0C5
:100800000948406820F003000749486008464068EE
:1008100040F00200486000BF0348406800F00C0050
:100820000828F9D10CBD0000001002400020024051
:1008300010B51348006840F00100114908600846EF
:100840004068104908400E494860084600680E4953
:1008500008400B4908600846006820F480200860C2
:100860000846406820F4FE0048604FF41F0088608E
:10087000FFF76AFF4FF000600449086010BD0000F8
:10088000001002400000FFF8FFFFF6FE08ED00E058
:1008900021B1028842F00102028004E002884FF692
:1008A000FE731A40028070470146888C704781842D
:1008B00070470000002202881D4B98420ED01D4B4D
:1008C00098420BD0B0F1804F08D01B4B984205D016
:1008D0001A4B984202D01A4B984204D14FF68F73AC
:1008E0001A404B881A43174B984207D0164B984230
:1008F00004D04FF6FF431A40CB881A4302808B88FE
:1009000083850B8803850A4B98420BD0094B98428C
:1009100008D00E4B984205D00D4B984202D00D4B9B
:10092000984201D10B7A038601238382704700002D
:10093000002C014000340140000400400008004049
:10094000000C004000100040001400400040014036
:100950000044014000480140FFF790FDFFF77CFC98
:10096000FFF7C4FE1EE04FF480510F48FFF74FFE23
:100970000E4801780E48FFF798FE00BF80210C4812
:10098000FFF78AFE0128F9D04FF480510648FFF79F
:1009900040FE0848FFF7A6FC074908804FF4967010
:1009A000FFF762FDDFE70000000C014002000020BD
:1009B000003800400024014000000020DC0900084D
:1009C000000000200400000028010008E0090008E1
:1009D000040000206406000044010008000032000A
:040000050800018965
:00000001FF
