:020000040800F2
:100000007806002091010008990100089B01000872
:100010009D0100089F010008A101000800000000E8
:10002000000000000000000000000000A301000824
:10003000A501000800000000A7010008A9010008B0
:10004000AB010008AB010008AB010008AB010008E0
:10005000AB010008AB010008AB010008AB010008D0
:10006000AB010008AB010008AB010008AB010008C0
:10007000AB010008AB010008AB010008AB010008B0
:10008000AB010008AB010008AB010008AB010008A0
:10009000AB010008AB010008AB010008AB01000890
:1000A000AB010008AB010008AB010008AB01000880
:1000B000AB010008AB010008AB010008AB01000870
:1000C000AB010008AB010008AB010008AB01000860
:1000D000AB010008AB010008AB010008AB01000850
:1000E000AB010008AB010008AB01000800F002F80A
:1000F00000F03FF80AA090E8000C82448344AAF183
:100100000107DA4501D100F034F8AFF2090EBAE880
:100110000F0013F0010F18BFFB1A43F0010318473B
:100120003410000054100000103A24BF78C878C181
:10013000FAD8520724BF30C830C144BF04680C60ED
:10014000704700000023002400250026103A28BF35
:1001500078C1FBD8520728BF30C148BF0B60704739
:10016000642900F07D80002070471FB51FBD10B5C9
:1001700010BD00F030F91146FFF7F7FF00F0CEFF99
:1001800000F04EF903B4FFF7F2FF03BC00F052F9A0
:100190000948804709480047FEE7FEE7FEE7FEE71B
:1001A000FEE7FEE7FEE7FEE7FEE7FEE70448054957
:1001B000054A064B70470000450A0008ED0000089C
:1001C00078000020780600207802002078020020C5
:1001D0000FB41CB5074B06AA7B44694600900598EE
:1001E00000F0DBF80020694600F0EAF81CBC5DF87E
:1001F00014FB0000E50100002DE9F0410E46044625
:10020000002020622046E168884730B3252805D0C9
:10021000D4E901219047206A401CF2E7E1682046BA
:1002200000278847050018D0A5F14100192802D8F9
:1002300020354FF400673246294620462760FFF7F5
:100240008FFF40B1012804D0F61D26F007060836BE
:10025000D8E7361DD6E72846DAE7206ABDE8F08100
:100260002DE9F0410646002410687529314616A58F
:1002700010D0AFF30080002802DA404213A507E057
:1002800031688A0701D512A502E0490704D511A5F6
:10029000012401E0AFF3008000210A2206F12407C7
:1002A00009E0B0FBF2FCB0FBF2F302FB1C003030C3
:1002B00078541846491C0028F3D123462A46304674
:1002C000BDE8F04100F00BB8000000002D00000078
:1002D0002B000000200000007047704770472DE998
:1002E000F0470D4699469246044600F124080168FD
:1002F000880604D5E06921F01001216000E00120AA
:10030000A84201DD471B00E00027A1697A1902EB32
:100310000900081AA0612078C00602D42046AFF375
:100320000080002608E0D4E901211AF80600904771
:10033000206A401C761C20624E45F4DB2078C00603
:100340000AD52046AFF3008006E0D4E90121302031
:100350009047206A401C2062381EA7F10107F4DC98
:1003600007E0D4E9012118F805009047206A401CF5
:100370002062281EA5F10105F3DC2046AFF30080C2
:100380002078000602D50220BDE8F0870120FBE7B7
:1003900001694A1C02610878704700B58FB0CDE949
:1003A00001310021059105497944CDE90310114639
:1003B0006846FFF721FF0FB000BD0000E5FFFFFF1B
:1003C0000A6802F8010B0A60704700000048704795
:1003D0001800002070477546FFF7F8FFAE4605008D
:1003E0006946534620F00700854618B020B5FFF750
:1003F000DDFEBDE820404FF000064FF000074FF053
:1004000000084FF0000B21F00701AC46ACE8C00932
:10041000ACE8C009ACE8C009ACE8C0098D4670473B
:1004200010B50446AFF300802046BDE81040FFF74A
:10043000A9BE000001491820ABBEFEE7260002005D
:1004400010B500F023F90121880700F0BAFB002164
:100450004FF0804000F080FD00BF4FF0804000F082
:10046000C5FC48F6A0418842F7DB00214FF08040F0
:1004700000F0A7FB10BD10B5044601E0FFF7E0FF58
:10048000201EA4F10104F9D110BD10B501210420F2
:1004900000F0DAF90121082000F0D6F9012102204C
:1004A00000F0B2F910BD2DE9F0410246002500260A
:1004B000002000230024002791F803C00CF00F0552
:1004C00091F803C00CF0100CBCF1000F03D091F8B0
:1004D00002C04CEA050591F800C0BCF1000F31D014
:1004E000146800202BE04FF0010C0CFA00F3B1F877
:1004F00000C00CEA03069E4220D183004FF00F0C8F
:100500000CFA03F7BC4305FA03FC4CEA040491F827
:1005100003C0BCF1280F06D14FF0010C0CFA00FC0F
:10052000C2F814C00AE091F803C0BCF1480F05D12D
:100530004FF0010C0CFA00FCC2F810C0401C082857
:10054000D1D31460B1F800C0BCF1FF0F34DD5468A2
:1005500000202EE000F1080C4FF0010808FA0CF31F
:10056000B1F800C00CEA03069E4221D183004FF08F
:100570000F0C0CFA03F7BC4305FA03FC4CEA040425
:1005800091F803C0BCF1280F05D100F1080C08FA5E
:100590000CF8C2F8148091F803C0BCF1480F07D1E1
:1005A00000F1080C4FF0010808FA0CF8C2F81080AE
:1005B000401C0828CED35460BDE8F08108B5012165
:1005C000142000F041F900220B210F4800F024F81C
:1005D00000224FF460410D4800F01EF810208DF805
:1005E00003000F20ADF8000001208DF802006946DD
:1005F0000548FFF758FF4FF46040ADF8000069462A
:100600000248FFF750FF08BD0008014000100140FC
:1006100041617047016170470AB1016100E04161C9
:100620007047000010B500201349088001211248CE
:10063000243800F0C6FA00BF01210F48243800F02A
:10064000D8FB0028F8D000210B48243800F0B9FA74
:1006500001210948243800F0B1FA0748243800F095
:10066000C2FB04460448243800F0BAFB201A3A21A1
:1006700090FBF1F010BD00002404004010B5FFF71E
:1006800004FF00F02BFD00F0D1FC10BD0EB50121E0
:10069000084600F0B9F80020ADF802000120ADF8DE
:1006A00000004FF6FF70ADF8040069464FF080403F
:1006B00000F06AFC0EBD000010B54FF40041074881
:1006C000FFF7A8FF0220FFF7D6FE4FF400410348D2
:1006D000FFF79EFF0220FFF7CEFE10BD0010014085
:1006E00070B506460C461CB906F18000C5B204E0A0
:1006F000012C02D106F1C000C5B2284600F076F800
:1007000070BD000010B5FFF759FF002000F050F851
:1007100000224FF400510F48FFF77EFF032000F046
:1007200047F8FFF7C9FFFFF7C7FFFFF7C5FF022034
:1007300000F03EF8FFF7C0FF282000F057F80C202B
:1007400000F054F8062000F051F8012000F04EF8B7
:1007500010BD00000010014010B50446224604A15F
:100760002846FFF735FD284600F016F810BD0000BA
:100770002564000010B504464FF400510548FFF70A
:1007800049FF204600F032F84FF400510148FFF7CE
:100790003FFF10BD0010014010B5044603E0207873
:1007A000FFF7E8FF641C20780028F8D110BD000096
:1007B00010B5044604F0010201210B48FFF72CFF9D
:1007C000C4F3400202210848FFF726FFC4F3800269
:1007D00004210548FFF720FFC4F3C00208210248A6
:1007E000FFF71AFF10BD00000008014010B50446D5
:1007F0002011FFF7DDFFFFF75FFF2046FFF7D8FF6F
:10080000FFF75AFF10BD000029B1064AD269024322
:10081000044BDA6104E0034AD2698243014BDA6196
:10082000704700000010024029B1064A12690243D5
:10083000044B1A6104E0034A12698243014B1A61B6
:10084000704700000010024029B1064A9269024335
:10085000044B9A6104E0034A92698243014B9A6116
:10086000704700000010024029B1064AD2680243D6
:10087000044BDA6004E0034AD2688243014BDA6039
:10088000704700000010024030B500210022002413
:1008900000232D4D6D6805F00C0121B1042905D010
:1008A000082923D105E0294D056022E0274D056088
:1008B0001FE0254D6D6805F47012234D6D6805F439
:1008C0008034022505EB92421CB9214D5543056049
:1008D0000BE01D4D6D6805F400351DB11C4D5543F1
:1008E000056002E0194D5543056002E0174D0560B3
:1008F00000BF00BF144D6D6805F0F0010909154DEA
:100900006B5C0568DD4045600F4D6D6805F4E06186
:10091000090A104D6B5C4568DD4085600A4D6D68C5
:1009200005F46051C90A0B4D6B5C4568DD40C5603C
:10093000054D6D6805F44041890B074D6B5CC5683A
:10094000B5FBF3F5056130BD0010024000127A00DE
:1009500000093D00020000201200002010B500F048
:1009600001F810BD0CB500200190009033480068DC
:1009700040F480303149086000BF3048006800F41E
:10098000003000900198401C0190009818B901981F
:10099000B0F5A06FF1D12948006800F4003010B123
:1009A0000120009001E0002000900098012843D130
:1009B0002348006840F0100021490860084600689C
:1009C00020F0070008600846006840F00200086058
:1009D0001A48406819494860084640684860084617
:1009E000406840F4806048600846406820F47C100D
:1009F00048600846406840F4E810486008460068CF
:100A000040F08070086000BF0C48006800F0007083
:100A10000028F9D00948406820F0030007494860E1
:100A20000846406840F00200486000BF0348406844
:100A300000F00C000828F9D10CBD000000100240A5
:100A40000020024010B51348006840F00100114931
:100A5000086008464068104908400E49486008464A
:100A600000680E4908400B4908600846006820F4F9
:100A7000802008600846406820F4FE0048604FF47B
:100A80001F008860FFF76AFF4FF0006004490860AC
:100A900010BD0000001002400000FFF8FFFFF6FE4E
:100AA00008ED00E0F0B50C46154600220021068C4A
:100AB0004FF6FE773E400684028B018C4FF60C7693
:100AC00032407E1C06EA03162E433243104EB042DB
:100AD0000ED0104EB0420BD0B0F1804F08D00E4E69
:100AE000B04205D00D4EB04202D00D4EB04206D1FC
:100AF0004FF6FD76314044F00106314305E04FF6F4
:100B0000F576314044F00106314302830184F0BDA3
:100B1000002C014000340140000400400008004067
:100B2000000C0040F0B50C461546002200210026BE
:100B3000078C4FF6EF7C07EA0C070784028B018CC9
:100B40004FF6FF7707EA041640F6FF473A404FF6A4
:100B5000FF7707EA03373A434FF6FF7707EA05279F
:100B60003A43114FB8420ED0104FB8420BD0B0F1FB
:100B7000804F08D00E4FB84205D00E4FB84202D079
:100B80000D4FB84206D14FF6DF77394046F01007D7
:100B9000394305E04FF65F77394044F01007394399
:100BA00002830184F0BD0000002C014000340140AC
:100BB0000004004000080040000C0040CA430282CC
:100BC000704721B1028842F00102028004E00288ED
:100BD0004FF6FE731A400280704731B1B0F84420DE
:100BE00042F40042A0F8442005E0B0F84420C2F3EB
:100BF0000E02A0F84420704710B5044668488442AD
:100C000008D10121C014FFF72FFE0021E014FFF7E7
:100C10002BFEC4E0B4F1804F08D101210846FFF754
:100C200003FE00210120FFF7FFFDB8E05D4884428C
:100C300008D101210220FFF7F7FD00210220FFF774
:100C4000F3FDACE05848844208D101210420FFF7AD
:100C5000EBFD00210420FFF7E7FDA0E053488442AC
:100C600008D101210820FFF7DFFD00210820FFF750
:100C7000DBFD94E04E48844208D101211020FFF7AB
:100C8000D3FD00211020FFF7CFFD88E049488442C2
:100C900008D101212020FFF7C7FD00212020FFF708
:100CA000C3FD7CE04448844208D101214014FFF791
:100CB000DBFD00216014FFF7D7FD70E03F48844260
:100CC00009D10121C804FFF7CFFD00214FF4002016
:100CD000FFF7CAFD63E03A48844209D101210805C3
:100CE000FFF7C2FD00214FF48010FFF7BDFD56E075
:100CF0003448844209D101214805FFF7B5FD0021A0
:100D00004FF40010FFF7B0FD49E02F48844208D1AE
:100D100001214020FFF788FD00214020FFF784FDDE
:100D20003DE02A48844208D101218020FFF77CFD64
:100D300000218020FFF778FD31E02548844208D16A
:100D400001218015FFF770FD0021A015FFF76CFD54
:100D500025E02048844209D101210804FFF784FDE1
:100D600000214FF48030FFF77FFD18E01A488442DD
:100D700009D101214804FFF777FD00214FF400302D
:100D8000FFF772FD0BE01548844208D10121880469
:100D9000FFF76AFD00214FF48020FFF765FD10BDCD
:100DA000002C01400004004000080040000C0040FE
:100DB000001000400014004000340140004C01408D
:100DC000005001400054014000180040001C004049
:100DD0000020004000400140004401400048014024
:100DE0000146888E70470146088F70470146888CFF
:100DF000704702460020138A0B400BB1012000E02F
:100E00000020704770B5002400220023058C4FF6A7
:100E1000FF6635400584028C8388848B4FF68F757E
:100E20002C404FF6FC752C400D882C434FF6FF5597
:100E30002A400D894FF6FF7606EA05252A434D889C
:100E400006EA05252A43154DA84202D0144DA842B2
:100E50001DD14FF2FF752A404D894FF6FF7606EA05
:100E600005252A434FF6FF352A408D8806EA0525D9
:100E70002A434EF6FF752B404DF6FF752B408D89AA
:100E800006EA05152B43CD8906EA05152B43838019
:100E90008483CD888587028470BD0000002C0140CA
:100EA000003401400021018041808180C1800181A6
:100EB00041818181C18170472DE9F04105460C4691
:100EC00000260127608808B9022600E00026A088D5
:100ED000012801D1022700E001272088A0B9238939
:100EE000A28861882846FFF7DDFDE188284600F0EA
:100EF00035F823893A4631462846FFF713FEE18844
:100F0000284600F034F813E02389A2886188284637
:100F1000FFF708FEE188284600F029F823893A46C1
:100F200031462846FFF7BEFDE188284600F016F856
:100F3000BDE8F0810A46002101894FF68F73194000
:100F400011430181704702894FF67F731A40028175
:100F500002890A430281704781847047028B4FF6F1
:100F6000F3731A400283028B0A4302837047028B99
:100F70004FF2FF331A400283028B4FF6FF7303EAEE
:100F800001231A4302837047002202881D4B9842B6
:100F90000ED01D4B98420BD0B0F1804F08D01B4BA8
:100FA000984205D01A4B984202D01A4B984204D16D
:100FB0004FF68F731A404B881A43174B984207D04D
:100FC000164B984204D04FF6FF431A40CB881A4381
:100FD00002808B8883850B8803850A4B98420BD04F
:100FE000094B984208D00E4B984205D00D4B9842C1
:100FF00002D00D4B984201D10B7A038601238382E4
:1010000070470000002C0140003401400004004003
:1010100000080040000C0040001000400014004098
:1010200000400140004401400048014010B590B02C
:101030000BA8FFF729FC27490B98B0FBF1F0401EE5
:1010400084B22548FFF7D8FDADF820400020ADF868
:1010500022004FF6FF70ADF824000020ADF8260006
:1010600008A91D48FFF790FF04A8FFF71BFF6020A9
:10107000ADF810000120ADF812000F20ADF81600F9
:101080000020ADF8180004A91348FFF7BBFE0020AC
:10109000ADF80400ADF806000120ADF8080000200E
:1010A000ADF80A00ADF80C0001A90B48FFF704FFEA
:1010B00050210948FFF73EFF80210748FFF743FF13
:1010C00001210548FFF789FD01210348FFF776FD5F
:1010D00010B010BD40420F000004004008B50120D0
:1010E000ADF8000003208DF8020018208DF80300F1
:1010F00069460848FFF7D7F94020ADF80000032003
:101100008DF8020004208DF8030069460248FFF7BD
:10111000CAF908BD000C014000080140FFF7AEFA13
:10112000FFF7F0FA13E0FFF77DFA00B208490880F4
:1011300000210846FFF7D4FA0549098888B2FFF76D
:101140000BFBC820FFF797F90120FFF74FFBEAE7F9
:1011500000000020741100080000002018000000AA
:10116000280100088C11000818000020600600000B
:101170004401000800000000000001020304010215
:0C1180000304060708090204060800002A
:04000005080001915D
:00000001FF
