:020000040800F2
:100000005007002091010008EB110008FD100008C6
:10001000E91100088F040008B7150008000000006F
:100020000000000000000000000000005115000862
:100030009D04000800000000ED11000853150008A1
:10004000AB010008AB010008AB010008AB010008E0
:10005000AB010008AB010008AB010008AB010008D0
:10006000AB010008AB010008AB010008AB010008C0
:10007000AB010008AB010008AB01000891040008C7
:10008000AB010008AB010008AB010008AB010008A0
:10009000AB010008AB010008AB010008AB01000890
:1000A000AB010008AB010008AB010008AB01000880
:1000B000AB010008AB010008AB010008AB01000870
:1000C000AB010008AB010008AB010008AB01000860
:1000D000AB010008AB010008AB010008AB01000850
:1000E000AB010008AB010008AB01000800F002F80A
:1000F00000F03FF80AA090E8000C82448344AAF183
:100100000107DA4501D100F034F8AFF2090EBAE880
:100110000F0013F0010F18BFFB1A43F0010318473B
:10012000FC2700001C280000103A24BF78C878C1C2
:10013000FAD8520724BF30C830C144BF04680C60ED
:10014000704700000023002400250026103A28BF35
:1001500078C1FBD8520728BF30C148BF0B60704739
:10016000642900F07D80002070471FB51FBD10B5C9
:1001700010BD00F052F91146FFF7F7FF01F02CFA1D
:1001800000F070F903B4FFF7F2FF03BC00F078F958
:100190000948804709480047FEE7FEE7FEE7FEE71B
:1001A000FEE7FEE7FEE7FEE7FEE7FEE70448054957
:1001B000054A064B70470000B5150008ED00000821
:1001C0005001002050070020500300205003002061
:1001D0000FB41CB5074B06AA7B44694600900598EE
:1001E00000F003F90020694600F012F91CBC5DF82C
:1001F00014FB0000350200002DE9F0410E460446D4
:10020000002020622046E168884730B3252805D0C9
:10021000D4E901219047206A401CF2E7E1682046BA
:1002200000278847050018D0A5F14100192802D8F9
:1002300020354FF400673246294620462760FFF7F5
:100240008FFF40B1012804D0F61D26F007060836BE
:10025000D8E7361DD6E72846DAE7206ABDE8F08100
:100260002DE9F0410646002410687529314616A58F
:1002700010D0AFF30080002802DA404213A507E057
:1002800031688A0701D512A502E0490704D511A5F6
:10029000012401E0AFF3008000210A2206F12407C7
:1002A00009E0B0FBF2FCB0FBF2F302FB1C003030C3
:1002B00078541846491C0028F3D123462A46304674
:1002C000BDE8F04100F032B8000000002D00000051
:1002D0002B000000200000004FF0000200B5134684
:1002E00094469646203922BFA0E80C50A0E80C5056
:1002F000B1F12001BFF4F7AF090728BFA0E80C5007
:1003000048BF0CC05DF804EB890028BF40F8042BFF
:1003100008BF704748BF20F8022B11F0804F18BF6C
:1003200000F8012B70477047704770472DE9F04780
:100330000D4699469246044600F124080168880655
:1003400004D5E06921F01001216000E00120A842FD
:1003500001DD471B00E00027A1697A1902EB0900C3
:10036000081AA0612078C00602D42046AFF30080AE
:10037000002608E0D4E901211AF806009047206A17
:10038000401C761C20624E45F4DB2078C0060AD55E
:100390002046AFF3008006E0D4E9012130209047E9
:1003A000206A401C2062381EA7F10107F4DC07E038
:1003B000D4E9012118F805009047206A401C20620A
:1003C000281EA5F10105F3DC2046AFF3008020785C
:1003D000000602D50220BDE8F0870120FBE70000FF
:1003E00001694A1C02610878704700B58FB0CDE9F9
:1003F00001310021059105497944CDE903101146E9
:100400006846FFF7F9FE0FB000BD0000E5FFFFFFF3
:100410000A6802F8010B0A607047754600F02CF874
:10042000AE4605006946534620F00700854618B0E1
:1004300020B5FFF7BBFEBDE820404FF000064FF0AF
:1004400000074FF000084FF0000B21F00701AC4609
:10045000ACE8C009ACE8C009ACE8C009ACE8C00928
:100460008D46704710B50446AFF300802046BDE8C6
:100470001040FFF787BE000000487047EC000020E6
:1004800001491820ABBEFEE7260002007047FEE7D8
:10049000014800F0B1B80000A8000020704772B613
:1004A000FEE700002DE9FF5F8B46596802989946E8
:1004B000DFF85CA031F810001968021F8E5CC21EC4
:1004C000401E8F5C11F8008000251BE0002416E020
:1004D0004B4621B228B2029A00F03FF8002804EB04
:1004E0000B0101EB080001B20098284400B201D0D2
:1004F0000E9A00E00F9ADAF800309847641CBC426C
:10050000E6DB6D1CB542E1DB04B03046BDE8F09F90
:10051000080000202DE9FE430546DDE90A760020AB
:100520009846144689468DF8080011E002A9204635
:1005300000F02AF8CDE900760246434649462846AF
:10054000FFF7B0FF2844401C05B29DF808000444A2
:1005500020780028EAD1BDE8FE8330B5C41700EB4F
:10056000547525F00704001B8024C440586830F8F7
:1005700012001A68831E00EBE500D35C01FB032127
:10058000085C204030BD000001220A70027802F0B1
:10059000F003802A21D3C02B04D0E02B08D0F02B0D
:1005A0000FD025E002220A7001784278090213E098
:1005B00003220A7001784278090441EA0221827814
:1005C0000AE004220A7001784278090641EA0241F1
:1005D000827841EA0221C2780A430649002000BF1E
:1005E00051F82030934204D0401CC0B2EC28F7D31D
:1005F00000207047482500082DE9F05FC16B0C68AA
:1006000001680B68D0F840C0042202FA0CF2494D90
:10061000DFF824A1494E4A4FDFF828B1DFF828E17E
:1006200022422CD05A072AD50A68920603D40A68B7
:1006300022F004020A600168A94201D1042219E0F3
:10064000514501D1402215E0B14202D14FF4806200
:1006500010E0B94202D14FF480420BE0594502D17B
:100660004FF4802206E0714502D14FF4800201E090
:100670004FF080622F4908394A60C16A3BE04FF071
:10068000020808FA0CF818EA040F4FF000094FF0BE
:10069000010235D05FEA837832D50B689B0605D41A
:1006A0000B6823F00A030B6080F821200168A9423F
:1006B00001D1022219E0514501D1202215E0B142B9
:1006C00002D14FF4007210E0B94202D14FF400524F
:1006D0000BE0594502D14FF4003206E0714502D1DA
:1006E0004FF4001201E04FF00072124908394A60DD
:1006F00080F82090816A00291AD0BDE8F05F084791
:10070000082505FA0CF5254212D01B0710D50B68F9
:1007100023F00E030B6090F84010C36B02FA01F156
:100720005960826380F8212080F82090016BE2E715
:10073000BDE8F09F080002401C000240300002406B
:1007400044000240580002406C00024030B528B31B
:1007500008C8134914221944B1FBF2F18900C1639E
:1007600010498163022141771A6843F6F0718A4388
:10077000D0E900142143D0E902452C432143046908
:1007800021434469214384692143114319600021B5
:100790004163012242770177084630BD012030BD18
:1007A000F8FFFDBF0000024070B5044600F004F9F8
:1007B0000546601C02D004480078044400F0FCF8B0
:1007C000401BA042FAD370BD0C0000202DE9F84F69
:1007D000DFF8B8910024A9F1040B23460F2709F193
:1007E000040AABF1040EC9E00125A5402A40AA4243
:1007F0007DD1674ED1F804C0ACEB0608B44532D0C9
:1008000014DCBCF1030F3AD009DCBCF1000F2AD094
:10081000BCF1010F1CD0BCF1020F31D11DE0BCF1C5
:10082000110F17D0BCF1120F2AD119E0B8F5881FAB
:1008300019D006DCB8F5803F15D0B8F5801F1FD160
:1008400011E0B8F5001F0ED0B8F5041F18D10AE06A
:10085000CB6815E0CB681B1D12E0CB6808330FE0B6
:10086000CB680C330CE08B682BB1012B4FF00803E5
:1008700003D0456104E0042302E0056100E00023A9
:10088000FF2A01D8064601E000F104064FEA84057C
:1008900001D9A5F12005D6F8008007FA05FC28EA61
:1008A0000C0803FA05F548EA0508C6F800804D680B
:1008B000ED0062D5374DAE6946F00106AE61AD6917
:1008C00024F0030605F001050095334D06EB050CF9
:1008D000DCF80850A607360F07FA06F825EA0805DF
:1008E000DFF8B880404503D14FF0000817E044E03E
:1008F000DFF8AC80404502D14FF001080FE0DFF88F
:10090000A480404502D14FF0020808E0DFF898804B
:10091000404502D14FF0030801E04FF0040808FA07
:1009200006F848EA0508CCF808804D68D9F8006058
:10093000ED024D4601D5164300E096432E604D680A
:10094000DAF80060AD02554601D5164300E0964343
:100950002E604D68DBF80060AD035D4601D516439F
:1009600000E096432E604D68DEF80060ED037546AA
:1009700001D5164300E096432E60641C0D682A469C
:10098000E5407FF431AFBDE8F88F00000804014076
:10099000000011100010024000000140000801405A
:1009A000000C014000100140001401400AB1016137
:1009B00070470904FBE700000148806870470000A9
:1009C0000C00002002488168027811448160704761
:1009D0000C000020074810B5016841F010010160CB
:1009E000032000F075F80F2000F006F800F024F85E
:1009F000002010BD0020024070B50D4D04464FF49C
:100A00007A712878B1FBF0F00A490968B1FBF0F07F
:100A100000F060FB48B9102C07D200222146501E7E
:100A200000F036F800206C6070BD012070BD000041
:100A30000C000020180000200C4808B5816941F026
:100A400001018161816901F001010091C16941F0F9
:100A50008051C161C06900F0805000900448416835
:100A600021F0E06141F00071416008BD00100240DA
:100A700000000140002809DB00F01F020121914025
:100A80004009800000F1E020C0F80011704700002C
:100A9000F0B40E4B1B680C46C3F30223C3F10705E9
:100AA000042D00D90425191D072901D2002300E0D7
:100AB000DB1E012606FA05F1491E214099409E40A1
:100AC000761E16403143F0BC00F076BD0CED00E020
:100AD000064900F0070208684FF6FF03184040EA95
:100AE0000220034A10430860704700000CED00E04C
:100AF0000000FA052DE9F0470F46050061D0434E8E
:100B0000306800F00700B84209D2306820F00700D2
:100B100038433060306800F00700B84251D128688F
:100B20003B4C810712D5400703D5606840F4E06074
:100B300060602878000703D5606840F4605060600A
:100B40006068A96820F0F000084360602878C0075A
:100B500028D06868012810D02168022810D08907A1
:100B600000292EDA616821F0030101436160FFF77B
:100B700023FF804641F288390DE021688903EFE7C1
:100B80008901EDE7FFF718FFA0EB0801494502D9FD
:100B90000320BDE8F0876068696800F00C00B0EBE6
:100BA000810FEFD1306800F00700B8420BD93068F0
:100BB00020F0070038433060306800F00700B8428A
:100BC00001D00120E5E72878400705D56068E9688D
:100BD00020F4E060084360602878000706D560686C
:100BE000296920F4605040EAC100606000F018F804
:100BF0006168084AC1F30311515CC84006490860A6
:100C000006480068FFF7F8FE0020C2E70020024017
:100C1000001002400A2900081800002010000020DF
:100C20000E4A51680E4801F00C03042B11D0082B1A
:100C30000FD10C48C1F38343C903C05C0AD5516886
:100C4000084AC1F34041921E515C054A5043B0FB33
:100C5000F1F070470449484370470000001002401B
:100C600000127A00FA28000800093D002DE9F84F2B
:100C7000040070D02078C04DC00749D06868C0F328
:100C80008100012807D06868C0F38100022809D1DB
:100C90006868C00306D52868800339D560680028D5
:100CA000E7D035E06068B0F5803F0BD010B1B0F50B
:100CB000A02F11D0286820F480302860286820F404
:100CC000802002E0286840F480302860606890B19D
:100CD000FFF772FE06460AE0286840F4802028608C
:100CE000F0E700BFFFF768FE801B642873D8286810
:100CF0008003F7D50CE0FFF75FFE064605E000BF76
:100D0000FFF75AFE801B6428F0D828688003F7D4C8
:100D100020789A4E80074FF001094FF0000839D52E
:100D2000686810F00C0F07D06868C0F381000228D3
:100D300009D16868C00306D42868800714D52069E3
:100D4000012808D110E02069B0B1C6F80090FFF783
:100D500033FE074605E00AE1FFF72EFEC01B02281E
:100D6000C4D828688007F7D52868616920F0F800A2
:100D700040EAC10028600DE0C6F80080FFF71CFEC5
:100D8000074604E0FFF718FEC01B022823D8286896
:100D90008007F7D4207800072CD57948A169D9B10C
:100DA000C0F80090FFF708FE074604E0FFF704FED6
:100DB000C01B02280FD8686A8007F7D571484FF426
:100DC000FA510068B0FBF1F0009000BF0098411E9E
:100DD0000091FAD20EE080E0C0F80080FFF7ECFD51
:100DE000074604E0FFF7E8FDC01B022875D8686AD3
:100DF0008007F7D42078400760D5E8690027C00055
:100E000008D4E86940F08050E861E869012700F003
:100E1000805000905C480168C90513D4016883467E
:100E200041F480710160FFF7C7FD824606E000BF14
:100E3000FFF7C2FDA0EB0A0064284ED8DBF80000E3
:100E4000C005F5D5E06801280AD008B1052813D0FF
:100E5000286A20F001002862286A20F0040002E0DD
:100E6000286A40F001002862E06841F2883B98B1AE
:100E7000FFF7A2FD82460BE0286A40F004002862DA
:100E8000EEE700BFFFF798FDA0EB0A0159455AD8DD
:100E9000286A8007F6D50CE0FFF78EFD824605E054
:100EA000FFF78AFDA0EB0A0159454CD8286A800754
:100EB000F6D41FB1E86920F08050E861E06988B39A
:100EC0006968C1F38101022944D00228C6F8608014
:100ED00004D0FFF771FD044638E034E0FFF76CFD05
:100EE000074604E0FFF768FDC01B02282BD82868DE
:100EF0008001F7D4206AB0F5803F05D16868A16809
:100F000020F4003008436860D4E9080108436968A8
:100F100021F4741108436860C6F86090FFF74CFD37
:100F2000044606E025E000BFFFF746FD001B02284F
:100F300009D828688001F7D51BE000BFFFF73CFD0A
:100F4000001B022802D90320BDE8F88F2868800121
:100F5000F4D40EE00128F7D06868226A00F48031EA
:100F6000914204D1616A00F47010884201D00120DE
:100F7000EAE70020E8E700000010024000004242DB
:100F800080044242180000200070004070B5040048
:100F900009D0606A002540B125616561A56294F8B9
:100FA000510040B10CE0012070BD6068B0F5827F57
:100FB000F4D0E561F2E784F85050204600F040F8A4
:100FC000022084F851002068016821F0400101608E
:100FD000A088218900F4827001F404410843A189AA
:100FE00001F400610843217C01F002010843217DE6
:100FF00001F001010843218B01F400710843217FB6
:1010000001F03801084394F8201001F080010843F2
:10101000218D01F40051084321680860A069042172
:1010200001EA1040216848602068C16921F400612C
:10103000C1616565012084F85100002070BD000089
:1010400070B586B00025064600950195029503957A
:1010500000681B49884230D11A49C86940F4804071
:10106000C861C86900F480400490886940F00800B5
:1010700088618869694600F0080004904FF42040B8
:10108000009002200190032003900F48FFF79EFB81
:101090000F4C0E4820601020C4E901058020C4E9EF
:1010A000030580016561C4E906502046FFF74EFB49
:1010B00008B1FFF7F4F9B464666206B070BD0000D1
:1010C0000038004000100240000C0140580002406F
:1010D000A800002010B5401EB0F1807F01D3012090
:1010E00010BD4FF0E02460610F21601700F064FA3A
:1010F0000020A06107202061002010BDFEE7000055
:101100000149086070470000080000202DE9F04305
:1011100085B00024214800940194029403948169CD
:1011200041F020018161816901F020010491816910
:1011300041F008018161816901F008010491816930
:1011400041F0040181618069DFF8548000F00400FF
:101150004FF480550490002229464046FFF726FCB4
:10116000DFF840904FF4E067002239464846FFF729
:101170001DFC0095022601250396CDE90154694620
:101180004046FFF723FB00970396CDE901546946DB
:101190004846FFF71BFB05B0BDE8F0830010024096
:1011A000000C0140000801400E4810B50C490160D8
:1011B0004FF48271416000218160C1604FF4007280
:1011C0000161C0E90512C1610162416281620A21C7
:1011D000C162FFF7DBFE002801D072B6FEE710BD4A
:1011E000003800401C000020FEE7FEE770470000CA
:1011F00003490A689207FCD50149091D0860704738
:101200000838004010B500218023A022084600F0D5
:101210000DF800234FF4A0440020FFF7E9FF002061
:10122000FFF7E6FF5B1CA342F6D310BD2DE9F041AA
:1012300007461D4616460C462A2000F063F900209A
:10124000FFF7D6FF3846FFF7D3FF0020FFF7D0FFA8
:10125000B819C0B2FFF7CCFF2B2000F053F90020E3
:10126000FFF7C6FF2046FFF7C3FF0020FFF7C0FFD0
:101270006019C0B2FFF7BCFFBDE8F0412C2000F0C0
:1012800041B900B50346000AFFF7B2FFD8B25DF8D6
:1012900004EBFFF7ADBF10B51446002810DB0029A2
:1012A0000EDBA0280CDA80290ADA0123C9B2C0B209
:1012B0001A46FFF7BBFF2046BDE81040FFF7E1BF2D
:1012C00010BD00008D4910B508600068016841F04C
:1012D0004001016000224FF480618948FFF766FBFE
:1012E000012000F00FF90520FFF75EFA112000F051
:1012F00009F90520FFF758FAB12000F003F90120A1
:10130000FFF776FF2C20FFF773FF2D20FFF770FF0C
:10131000B22000F0F7F80120FFF76AFF2C20FFF75A
:1013200067FF2D20FFF764FFB32000F0EBF80120EA
:10133000FFF75EFF2C20FFF75BFF2D20FFF758FF24
:101340000120FFF755FF2C20FFF752FF2D20FFF75C
:101350004FFFB42000F0D6F80720FFF749FFC02068
:1013600000F0D0F8A220FFF743FF0220FFF740FF74
:101370008420FFF73DFFC12000F0C4F8C520FFF72F
:1013800037FFC22000F0BEF80A20FFF731FF00202F
:10139000FFF72EFFC32000F0B5F88A20FFF728FFE3
:1013A0002A20FFF725FFC42000F0ACF88A20FFF7C1
:1013B0001FFFEE20FFF71CFFC52000F0A3F80E2052
:1013C000FFF716FF202000F09DF8362000F09AF875
:1013D000A020FFF70DFF3A2000F094F80520FFF75A
:1013E00007FF2A2000F08EF80020FFF701FF002001
:1013F000FFF7FEFE0020FFF7FBFEA020FFF7F8FE40
:101400002B2000F07FF80020FFF7F2FE0020FFF70E
:10141000EFFE0020FFF7ECFE8020FFF7E9FEE02062
:1014200000F070F80220FFF7E3FE1C20FFF7E0FE5B
:101430000720FFF7DDFE1220FFF7DAFE3720FFF767
:10144000D7FE3220FFF7D4FE2920FFF7D1FE2D2052
:10145000FFF7CEFE2920FFF7CBFE2520FFF7C8FEC1
:101460002B20FFF7C5FE3920FFF7C2FE0020FFF753
:10147000BFFE0120FFF7BCFE0320FFF7B9FE1020DE
:10148000FFF7B6FEE12000F03DF80320FFF7B0FEC5
:101490001D20FFF7ADFE0720FFF7AAFE0620FFF78D
:1014A000A7FE2E20FFF7A4FE2C20FFF7A1FE292087
:1014B000FFF79EFE2D20FFF79BFE2E20FFF798FEE4
:1014C0002E20FFF795FE3720FFF792FE3F20FFF713
:1014D0008FFE0020FFF78CFE0020FFF789FE022020
:1014E000FFF786FE1020FFF783FE132000F00AF8B6
:1014F000BDE81040292000F005B8000000000020E1
:10150000000801402DE9F0410F4C07462068800794
:10151000FCD520680006FCD40C4E4FF480750022E8
:1015200029463046FFF742FA0748001D0760206849
:101530008007FCD520680006FCD429463046BDE86B
:10154000F0410122FFF732BA08380040000801409C
:101550007047FFF737BA30B58FB028216846FEF7DD
:10156000BBFE14210AA8FEF7B7FE01210804CDE94D
:1015700000100024029402250491CDE907504FF495
:10158000E01009906846FFF771FB08B172B6FEE7FC
:101590000F20CDE90A054FF48060CDE90C4002210F
:1015A0000AA80E94FFF7A6FA002801D072B6FEE74B
:1015B0000FB030BD7047FEE70907090E002804DBB5
:1015C00000F1E02080F80014704700F00F0000F1F7
:1015D000E02080F8141D70471CB5FFF7FBF9FFF7FA
:1015E000BAFFFFF793FD2848416941F001014161CD
:1015F0004069002200F00100009011460F20FFF723
:1016000047FA0F20FFF736FAFFF7CEFD012211034C
:101610001E48FFF7CBF9012251021D48FFF7C6F91A
:101620001C48FFF74FFEFFF7EDFD1B48FFF768FD75
:1016300000244FF6FF70CDE90004184B18A2214694
:101640002046FEF767FF40F6B830FFF7ADF8FFF72A
:10165000D9FD1A4D4FF4FA774FF478463846FFF724
:10166000A3F82A6816A1501C28600A485830FEF7D3
:10167000AFFD084ACDE90064084B58321E21002016
:10168000FEF748FFEAE7000000100240000C0140AE
:10169000000801401C0000209712000840250008A7
:1016A0004D494E48204E48414E204445502054520A
:1016B0004149204E48415420000000000400002011
:1016C00044617461203A20256400000005000A008E
:1016D000190028003700460055006400740084009B
:1016E0009400A400B500C400D300E200F1000101A1
:1016F00012011F012E013D014C015B016A017901BC
:1017000088019701A601B601C701D601E501EA01EA
:10171000F701FE010B021A0230023D02430252029F
:1017200061026902720278027D0282028F029C02CB
:10173000A902B602C302D002DD02EA02F7020403E4
:1017400011031B03260331033803430350036803CB
:10175000750382038F039C03A903B603C303D0035D
:10176000DD03EA03F70304041A04270434044104E4
:101770004E045B046804750482048F04A504B2045B
:10178000BF04CC04DB04E804F704FE0403050905E8
:10179000130520052A05370541054E055A0567053D
:1017A0007405830590059D05AD05B705C105CD05FB
:1017B000D905E305ED05F90503060D061D06270607
:1017C00033063D064C065B066A0670067F068E06EB
:1017D0009D06AC06BB06CA06D906E806F70606074C
:1017E0001507240734074507530762077107800769
:1017F0008F079F07AE07BD07CC07DB07EA07F8078F
:1018000007081608250834084408530862087108B8
:1018100080088F089C08A908B608C308CF08DC0810
:10182000EB08FA08090918092709340941094E0982
:101830005C096B097A0987099409A109AE09BB09FA
:10184000C709D409E109EE09FC090B0A1A0A270A9B
:10185000340A410A4E0A5D0A6A0A770A840A910A22
:101860009D0AAA0AB70AC40AD20AE10AF00AFC0AC7
:10187000090B160B230B300B3E0B4B0B580B650B58
:10188000720B7E0B8A0B970BA40BB10BBE0BCC0B10
:10189000DB0BEA0BF90B080C140C2E0C4A0C660C33
:1018A000820C960C0D0301010000070B01022010B1
:1018B0001010282844447C8282070B010208101073
:1018C00010282844447C8282070B0102301010103B
:1018D000282844447C8282070B01023458101028C7
:1018E0002844447C8282070B0104101028284444B9
:1018F0007C82820010070B01024438101028284413
:10190000447C8282070C010120543810102828449E
:10191000447C8282070C01010854381010282844A6
:10192000447C8282070C0101107C0010102828449E
:10193000447C8282070C01013C7C00101028284462
:10194000447C8282070D0102443810102828444448
:101950007C82820010070B010210281010282844F6
:10196000447C8282070B010250281010282844442E
:101970007C8282070B010214281010282844447C22
:101980008282080B010213291010282844447C820B
:1019900082070C01011428381010282844447C8246
:1019A00082070D010210281010282844447C8282EE
:1019B0000010080901047C424141F14141427C068A
:1019C0000B01022010FC808080F8808080FC060BD8
:1019D00001020810FC808080F8808080FC060B01EA
:1019E000023010FC808080F8808080FC060B0102B1
:1019F0003458FC808080F8808080FC060B0104FC59
:101A0000808080F8808080FC0010060B0102102886
:101A1000FC808080F8808080FC060B01025028FC4E
:101A2000808080F8808080FC060B01021428FC80F6
:101A30008080F8808080FC080B01021329FC8080E4
:101A400080F8808080FC060C010114283800FC809E
:101A500080F8808080FC060D01021028FC808080C8
:101A6000F8808080FC0010020B0102804040404062
:101A7000404040404040020B010240808080808016
:101A800080808080800301010000010901048080C2
:101A90008080808080008003030104A0A0A007094B
:101AA000010414147E282828FC5050050B01032043
:101AB00070A8A0A0702828A870200909020460005E
:101AC0009100920064000800130024804480030009
:101AD000060901043048483060948C887402020181
:101AE000044080030B0104204040808080808040BF
:101AF0004020030B01048040402020202020404053
:101B0000800504010420F82050050501062020F876
:101B100020200202010C408004010109F0010101B2
:101B20000C80030901042020404040404080800593
:101B300009010470888888888888887003090104EE
:101B400020E02020202020202005090104708808A2
:101B50000810204080F80509010470880808300842
:101B600008887006090104081828284888FC080815
:101B700005090104F88080F08808088870050901CB
:101B800004708880B0C88888887005090104F80846
:101B9000101020204040400509010470888888709A
:101BA0008888887005090104708888889868088882
:101BB0007001060107800000000080020701074055
:101BC00000000000408005070105083040804030DB
:101BD0000805030107F800F80507010580601008F3
:101BE000106080050901047088080810202000207A
:101BF0000A0A02041E00618040808E40924092409A
:101C00008DC0400060001F00070901041010282843
:101C100044447C828206090104F8848484F8848424
:101C200084F80709010438448280808082443807A0
:101C3000090104F884828282828284F80609010400
:101C4000FC808080F8808080FC06090104FC808094
:101C500080F88080808007090104384482808E8269
:101C600082463A0709010482828282FE828282824F
:101C700001090104808080808080808080050901C6
:101C8000040808080808088888700709010484887F
:101C900090A0E09088848206090104808080808082
:101CA000808080FC0909020480808080C180A2803D
:101CB000A28094809480888080800709010482C279
:101CC000A2A2928A8A86820709010438448282820B
:101CD0008282443807090104FC828282FC80808071
:101CE00080070901043844828282828A443A0709C3
:101CF0000104FC828282FC848282820609010478CB
:101D0000848480780484847807090104FE1010100C
:101D100010101010100709010482828282828282D0
:101D20004438070901048282444444282810100BD7
:101D3000090204802080204440444044402A802AF4
:101D40008011001100080901048142241818182488
:101D500042810709010482824428101010101005E6
:101D6000090104F808101020404080F8020B01041B
:101D7000C0808080808080808080C00309010480D2
:101D80008040404040402020020B0104C0404040C1
:101D9000404040404040C0050301042050880701F6
:101DA000010EFE020201048040050601077008785A
:101DB00088887805090104808080F088888888F008
:101DC00005060107708880808870050901040808ED
:101DD00008788888888878050601077088F88088E0
:101DE0007003090104204040E040404040400508A5
:101DF000010778888888887808F0050901048080C0
:101E000080B0C8888888880109010480000080802B
:101E100080808080020B0104400000404040404030
:101E20004040800509010480808090A0C0A0908877
:101E30000109010480808080808080808009060202
:101E400007B300CC80888088808880888005060160
:101E500007B0C88888888805060107708888888840
:101E60007005080107F088888888F08080050801DF
:101E700007788888888878080803060107A0C0804A
:101E80008080800406010760904020906003080174
:101E9000054040E040404040200506010788888812
:101EA0008898680506010788885050202009060296
:101EB00007888088805500550055002200060601DD
:101EC0000784483030488406080107444428281015
:101ED0001020C004060107F010204080F0030B0121
:101EE000042040404040804040404020010B01041D
:101EF0008080808080808080808080030B010480CF
:101F00004040404020404040408006020104649828
:101F1000020B0102C040404040404040404040056C
:101F20000B010268B0202020202020202020010B5F
:101F300001048080808080808080800080070B0189
:101F4000022010384482828282824438070B0102C8
:101F50000810384482828282824438070B010230A2
:101F600010384482828282824438070B010234583E
:101F7000384482828282824438070B0104384482CA
:101F80008282828244380010070B010210283844F4
:101F900082828282824438070B01025028384482B0
:101FA000828282824438070B0102142838448282DC
:101FB0008282824438080B010213293844828282CB
:101FC00082824438070C010114281038448282822E
:101FD00082824438070D01021028384482828282AE
:101FE0008244380010070A010306023A44828282C2
:101FF000824438070B01022016023A448282828210
:102000004438070B01020816023A44828282824455
:1020100038070B01023016023A4482828282443829
:10202000070B0102345E023A4482828282443807FE
:102030000C010306023A448282828244380010076F
:102040000B01022010828282828282824438070B36
:1020500001020810828282828282824438070B0148
:10206000023010828282828282824438070B01020F
:102070003458828282828282824438070B01048231
:1020800082828282828244380010080A010303019E
:102090008282828282824438080B010220130182EC
:1020A00082828282824438080B01020813018282F4
:1020B000828282824438080B0102301301828282BC
:1020C0008282824438080B0102345B018282828260
:1020D00082824438080C0103030182828282828258
:1020E00044380010070B010220108282442810108F
:1020F000101010070B0102081082824428101010E3
:102100001010070B010230108282442810101010AA
:1021100010070B010234588282442810101010104E
:10212000070B0104828244281010101010001005C3
:1021300009010440200070087888887805090104A6
:102140001020007008788888780509010460200054
:102150007008788888780509010468B000700878EC
:102160008888780508010770087888887800200535
:10217000090104887000700878888878050B0102CE
:102180004020887000700878888878050B0102105C
:1021900020887000700878888878050B010260201C
:1021A000887000700878888878050B010268B0880C
:1021B0007000700878888878050B010488700070BA
:1021C00008788888780020050901042050007008EC
:1021D0007888887805090104A050007008788888FC
:1021E0007805090104285000700878888878060A64
:1021F00001030C245000700878888878050B0102D0
:102200002850205000700878888878050B01042039
:102210005000700878888878002006090104083C7E
:10222000087888888888780509010440200070882B
:10223000F8808870050901041020007088F88088F3
:1022400070050901046020007088F8808870050915
:10225000010468B0007088F8808870050801077074
:1022600088F88088700020050901042050007088DB
:10227000F880887005090104A050007088F88088F3
:1022800070050901042850007088F8808870060ADB
:1022900001030C2450007088F8808870050B01023F
:1022A00028502050007088F8808870050B010420A9
:1022B00050007088F8808870002002090104804076
:1022C00000404040404040020901044080008080BE
:1022D0008080808002090104C040004040404040AE
:1022E000400509010468B000202020202020010BB7
:1022F00001048000008080808080800080050901CA
:102300000440200070888888887005090104102026
:102310000070888888887005090104602000708832
:10232000888888700509010468B0007088888888EA
:1023300070050801077088888888700020050901E9
:102340000420500070888888887005090104A05016
:1023500000708888888870050901042850007088FA
:1023600088888870060A01030C24500070888888C9
:102370008870050B010228502050007088888888DA
:1023800070050B0104205000708888888870002038
:1023900005080105180870888888887005090104F7
:1023A00080580870888888887005090104103808EA
:1023B00070888888887005090104C058087088886A
:1023C0008888700609010468BC04384444444438D1
:1023D000050A01051808708888888870002005099A
:1023E0000104402000888888889868050901041045
:1023F0002000888888889868050901046020008882
:1024000088888898680509010468B00088888888E9
:102410009868050801078888888898680020060859
:1024200001050C0488888888986806090104402CF6
:102430000488888888986806090104204C048888E4
:102440008888986806090104602C04888888889820
:10245000680709010468B602444444444C34060A3F
:1024600001050C048888888898680020060B010400
:1024700020100044442828101020C0060B01040836
:10248000100044442828101020C0060B010430100E
:102490000044442828101020C0060B0104345800C2
:1024A00044442828101020C0060801074444282866
:1024B000101020C40B0B0201240028404FE079606B
:1024C000D140CD40494049204920510047000C0CE3
:1024D0000200200023E0F8204840488048808BF02C
:1024E000D08030803080488081800C0C020079F0F0
:1024F0004910491079F04910491079F049104910F4
:1025000049108A109A300C0C020008000800FFF0F5
:10251000080008001FC010402880450083000CC040
:1025200070300B0802023180FBE0FFE0FFE0FFE0CB
:102530007FC00E0004000303010440A0400000001F
:10254000A4180008CC1600082000000080C300007A
:1025500081C30000A2BAE10083C30000A0BAE10079
:1025600082C40000B0BAE100AEBAE100B2BAE10044
:10257000B4BAE100B6BAE10082C30000A6BAE10035
:10258000A4BAE100A8BAE100AABAE100ACBAE1003D
:1025900090C4000088C3000089C30000BABAE100FB
:1025A000BCBAE100B8BAE1008AC3000080BBE10018
:1025B000BEBAE10082BBE10084BBE10086BBE10062
:1025C0008CC300008DC3000020000000210000002B
:1025D000220000002300000024000000250000006D
:1025E000260000009880E20028000000290000007A
:1025F0002A0000002B0000002C0000009380E20065
:102600002E0000002F00000030000000310000000C
:1026100032000000330000003400000035000000EC
:1026200036000000370000003800000039000000CC
:102630003A0000003B0000003C0000003D000000AC
:102640003E0000003F00000040000000410000008C
:10265000420000004300000044000000450000006C
:10266000460000004700000048000000490000004C
:102670004A0000004B0000004C0000004D0000002C
:102680004E0000004F00000050000000510000000C
:1026900052000000530000005400000055000000EC
:1026A00056000000570000005800000059000000CC
:1026B0005A0000005B0000005C0000005D000000AC
:1026C0005E0000005F00000060000000610000008C
:1026D000620000006300000064000000650000006C
:1026E000660000006700000068000000690000004C
:1026F0006A0000006B0000006C0000006D0000002C
:102700006E0000006F00000070000000710000000B
:1027100072000000730000007400000075000000EB
:1027200076000000770000007800000079000000CB
:102730007A0000007B0000007C0000007D000000AB
:102740007E00000088BBE100A8C400008ABBE10055
:1027500092C3000093C300008EBBE10095C300004C
:102760008CBBE10094C3000092BBE10090BBE10090
:1027700094BBE10096BBE10098BBE100A0C600005D
:102780009CBBE1009ABBE1009EBBE100A0BBE10065
:10279000A2BBE10099C300009AC30000A6BBE10000
:1027A000A8C50000A4BBE100AFC60000AABBE100C1
:1027B000A8BBE100ACBBE100AEBBE100B0BBE100F7
:1027C000B2BBE1009DC30000B6BBE100B8BBE100B5
:1027D000B4BBE100A0C30000A1C30000A3BAE100A4
:1027E000A3C30000A1BAE10083C40000B1BAE100B4
:1027F000AFBAE100B3BAE100B5BAE100B7BAE1009F
:10280000A2C30000A7BAE100A5BAE100A9BAE1009D
:10281000ABBAE100ADBAE10091C40000A8C300006A
:10282000A9C30000BBBAE100BDBAE100B9BAE1003A
:10283000AAC3000081BBE100BFBAE10083BBE10095
:1028400085BBE10087BBE100ACC30000ADC3000065
:1028500089BBE100A9C400008BBBE100B2C300004A
:10286000B3C300008FBBE100B5C300008DBBE10026
:10287000B4C3000093BBE10091BBE10095BBE10054
:1028800097BBE10099BBE100A1C600009DBBE10040
:102890009BBBE1009FBBE100A1BBE100A3BBE1004A
:1028A000B9C30000BAC30000A7BBE100A9C500007E
:1028B000A5BBE100B0C60000ABBBE100A9BBE100D5
:1028C000ADBBE100AFBBE100B1BBE100B3BBE100D8
:1028D000BDC30000B7BBE100B9BBE100B5BBE1007F
:1028E000A0BDE400BDA5E5008B9CE6008B8FE50054
:1028F000A49DE200B0C20000010202030405060725
:1029000008090A0B0C0D0E0F10100000000000004B
:102910000000010203040607080900003C29000822
:10292000000000201C0000002801000858290008B1
:102930001C000020340700004401000800000000D3
:102940000000000000000000010000001000000076
:08295000000000000024F40067
:04000005080000ED02
:00000001FF
