:020000040800F2
:1000000088270020050100080D0100080F010008E5
:10001000110100081301000815010008000000008C
:10002000000000000000000000000000951900081A
:100030001901000800000000851200089919000845
:100040001F0100081F0100081F0100081F01000810
:100050001F0100081F0100081F0100081F01000800
:100060001F0100081F0100081F0100081F010008F0
:100070001F0100081F0100081F0100081F010008E0
:100080001F0100081F0100081F0100081F010008D0
:100090001F0100081F0100081F0100081F010008C0
:1000A0001F0100081F0100081F0100081F010008B0
:1000B0001F0100081F0100081F0100081F010008A0
:1000C0001F0100081F0100081F0100081F01000890
:1000D0001F0100081F0100081F0100081F01000880
:1000E0001F0100081F0100081F010008DFF810D0E1
:1000F00000F0D6F800480047D5350008AFF300807F
:10010000882700200648804706480047FEE7FEE7AC
:10011000FEE7FEE7FEE7FEE7FEE7FEE7FEE7FEE7B7
:10012000151A0008ED000008202A04DB203A21FA05
:1001300002F00021704721FA02F3D040C2F1200200
:100140009140084319467047D2B201E000F8012BF4
:10015000491EFBD270470022F6E710B513460A4647
:1001600004461946FFF7F0FF204610BD70B521F098
:10017000004303430CD0C1F30A550024D5EB04051A
:1001800064EB0403D617AD1AB34102DB002001462D
:1001900070BD201841EB025170BD0EB540F23341E5
:1001A00002910021CDE900110A460B4600F02AF821
:1001B00003B000BDC1F30A5210B5C1F3130140F200
:1001C000FF3341F480119A4201DA002010BD40F261
:1001D00033439A42A2F2334203DC5242FFF7A4FFB8
:1001E00010BD904010BD10B5141E73F1000408DA64
:1001F000401C41F1000192185B411A4301D120F0EB
:10020000010010BD2DE9F04D92469B4611B1B1FAA7
:1002100081F202E0B0FA80F22032904600F052F80B
:1002200004460F4640EA0A0041EA0B0153465A468B
:10023000084313D0114653EA010019D0C8F1400217
:100240005046FFF771FF05460E4650465946424656
:1002500000F038F8084305D0012004E02046394674
:10026000BDE8F08D0020054346EAE0762C43374395
:100270000A986305E40AA0EB08000022FD0A44EA9C
:1002800047540A3002D500200146E9E7010510195C
:100290006941DDE9084500196941BDE8F04DA2E773
:1002A000064C074D06E0E06840F0010394E80700C3
:1002B00098471034AC42F6D3FFF71CFF5C400008AF
:1002C0007C400008202A04DB203A00FA02F10020DA
:1002D00070479140C2F1200320FA03F31943904084
:1002E0007047000001221021014800F029B90000E8
:1002F00000080140002200F001B8000010B484465C
:1003000001200F4B5C7A012C17D8587A00241C541A
:10031000587A03EB8000C0F804C0587A03F1080C47
:1003200000F80C20587A421C5A72303008703A207B
:1003300048702F208870CC70002010BC70470000DF
:100340007C2300202DE9F84F4FF0000C00230A68B1
:10035000002A7DD0DFF8DC810F27A8F1040A08F11C
:100360000409AAF1040B012202FA0CF60A683240D1
:10037000B2426ED1DFF8C0E14C68A4EB0E057445C3
:100380002BD00DDC032C34D005DC34B3012C19D078
:10039000022C2FD11BE0112C16D0122C2AD119E0DF
:1003A000B5F5881F19D006DCB5F5803F15D0B5F539
:1003B000801F1FD111E0B5F5001F0ED0B5F5041F49
:1003C00018D10AE0CB6815E0CB681B1D12E0CB68A2
:1003D00008330FE0CB680C330CE08B6823B1012BA2
:1003E00004D00823466105E0042303E008230661E6
:1003F00000E00023B2F5807F01D2054601E000F164
:10040000040502D24FEA8C0403E0ACF108044FEA81
:1004100084042E6807FA04FE26EA0E0603FA04F4A2
:1004200046EA04042C604C6814F0805F79D0434C99
:10043000A56945F00105A561A46904F001040094D3
:100440002CF0030404F1804404F58034A66801E034
:100450006EE066E04FEA8C754FEA157507FA05FE07
:1004600026EA0E0EA0F18046B6F584361ED0A0F125
:100470008046B6F586361BD0A0F18046B6F58836A4
:1004800018D0A0F18046B6F58A3615D0042606FAB3
:1004900005F545EA0E05A5604C6814F4801F0DD0E3
:1004A000D8F800401443C8F800400CE00026EEE7FE
:1004B0000126ECE70226EAE70326E8E7D8F8004041
:1004C0009443C8F800404C6814F4001F05D0D9F8D4
:1004D00000401443C9F8004004E0D9F800409443B8
:1004E000C9F800404C6814F4003F05D0DAF8004029
:1004F0001443CAF8004004E0DAF800409443CAF814
:1005000000404C6814F4803F05D0DBF800402243E3
:10051000CBF8002005E0DBF8004024EA0202CBF82B
:1005200000200CF1010C0A6832FA0CF27FF41BAFC8
:10053000BDE8F88F080401400000111000100240CF
:10054000002A01D001617047090401617047000071
:100550000148806870470000300000200248816830
:1005600002781144816070473000002010B50748C0
:10057000016841F010010160032000F075F80020CF
:1005800000F006F800F026F8002010BD0020024020
:1005900070B504460D4D4FF47A712878B1FBF0F038
:1005A0000B490968B1FBF0F000F0DEFD08B1012055
:1005B00070BD102C07D200222146501E00F020F8FA
:1005C0006C60002070BD012070BD00003000002074
:1005D0003C000020094808B5816941F001018161B2
:1005E000816901F001010091C16941F08051C1614F
:1005F000C06900F08050009008BD0000001002406B
:1006000010B4184B1B68C3F30223C3F1070CBCF1F1
:10061000040F01D94FF0040C1C1D072C01D200233C
:1006200000E0DB1E012404FA0CFCACF1010C0CEA26
:100630000101994004FA03F35B1E1A40114300289C
:1006400006DB00F1E020090180F8001410BC7047BF
:1006500000F00F0000F1E020090180F8141D10BC2B
:10066000704700000CED00E000F00700064A11683A
:100670004FF6FF03194041EA002040F0FD7040F0C2
:1006800080601060704700000CED00E02DE9F0473D
:1006900004460D46002C17D0DFF85C81D8F8000026
:1006A00000F00700A84212D2D8F8000020F007009E
:1006B0002843C8F80000D8F8000000F00700A8425E
:1006C00005D00120BDE8F0870120BDE8F087206853
:1006D0004A4E10F0020F14D010F0040F03D07068CF
:1006E00040F4E0607060207810F0080F03D070686C
:1006F00040F460507060706820F0F001A06808431A
:100700007060207810F0010F3AD06068012806D0A0
:1007100002280BD0316811F0020F27D00AE03168AF
:1007200011F4003F06D10120BDE8F087316811F0D7
:10073000007F18D0716821F0030108437060FFF753
:1007400007FF07467068616800F00C00B0EB810F8E
:1007500016D041F28839FFF7FBFEC01B484508D987
:100760000320BDE8F0870120BDE8F0870120BDE847
:10077000F0877068616800F00C00B0EB810FEAD17F
:10078000D8F8000000F00700A8420FD9D8F8000000
:1007900020F007002843C8F80000D8F8000000F057
:1007A0000700A84202D00120BDE8F087207810F0B1
:1007B000040F05D07068E16820F4E06008437060C1
:1007C000207810F0080F06D07068216920F460507E
:1007D00040EAC100706000F019F87168084AC1F37E
:1007E0000311515CC8400749086007480068FFF7DB
:1007F000CFFE0020BDE8F08700200240001002403C
:10080000D23A00083C000020340000200E4B59680A
:100810000E4801F00C02042A11D0082A0FD10C480E
:10082000C1F38342805C11F4803F09D05968094AC2
:10083000C1F34041515C054A5043B0FBF1F07047B1
:1008400005494843704700000010024000127A003A
:10085000C23A0008C03A000800093D002DE9F84FEF
:100860000446002C0FD02078F84D10F0010F6CD00A
:10087000686800F00C0004280CD0686800F00C00D8
:10088000082803D010E00120BDE8F88F686810F454
:10089000803F09D0286810F4003F56D060680028D7
:1008A00053D10120BDE8F88F6068B0F5803F15D0C6
:1008B000C8B1B0F5A02F1FD0286820F48030286080
:1008C000286820F480202860606858B3FFF740FE55
:1008D0000646286810F4003F17D036E0286840F438
:1008E00080302860F0E7286820F48030286028688D
:1008F00020F480202860E7E7286840F48020286002
:10090000286840F480302860DEE7FFF721FE801B76
:10091000642802D90320BDE8F88F286810F4003F4E
:10092000F3D012E0FFF714FE0646286810F4003FEB
:100930000BD0FFF70DFE801B642802D90320BDE811
:10094000F88F286810F4003FF3D12078C04F10F0E2
:10095000020F4FF0010B4FF0000854D0686810F000
:100960000C0F14D0686800F00C00082803D16868E8
:1009700010F4803F0BD0206978B3C7F800B0FFF7C0
:10098000E7FD0646286810F0020F12D01DE0286827
:1009900010F0020F05D02069012802D00120BDE827
:1009A000F88F2868616920F0F80040EAC1002860EB
:1009B00029E0FFF7CDFD801B022802D90320BDE806
:1009C000F88F286810F0020FF3D02868616920F0D2
:1009D000F80040EAC100286015E0FFE7C7F8008092
:1009E000FFF7B6FD0646286810F0020F0BD0FFF7A0
:1009F000AFFD801B022802D90320BDE8F88F2868CC
:100A000010F0020FF3D1207810F0080F30D0914889
:100A1000A169C1B1C0F800B0FFF79AFD0646686A47
:100A200010F0020F0BD1FFF793FD801B022802D9B3
:100A30000320BDE8F88F686A10F0020FF3D00120A0
:100A400000F022FC14E0C0F80080FFF781FD0646AC
:100A5000686A10F0020F0BD0FFF77AFD801B0228A6
:100A600002D90320BDE8F88F686A10F0020FF3D1B5
:100A7000207810F0040F6FD00026E86910F0805F36
:100A800008D1E86940F08050E861E86900F08050E2
:100A900000900126DFF8C0A1DAF8000010F4807F92
:100AA0001BD1DAF8000040F48070CAF80000FFF7AC
:100AB0004FFD8146DAF8000010F4807F0DD1FFF77A
:100AC00047FDA0EB0900642802D90320BDE8F88F98
:100AD000DAF8000010F4807FF1D0E068012816D029
:100AE000D0B1052821D0286A20F001002862286AA8
:100AF00020F004002862E06841F2883A68B3FFF70A
:100B000027FD8146286A10F0020F17D03AE0286AC4
:100B100040F001002862EEE7286A20F00100286218
:100B2000286A20F004002862E5E7286A40F0040003
:100B30002862286A40F001002862DCE7FFF708FD20
:100B4000A0EB0900504502D90320BDE8F88F286AC0
:100B500010F0020FF2D015E01AE0FFE7FFF7F8FC03
:100B60008146286A10F0020F0CD0FFF7F1FCA0EBD1
:100B70000900504502D90320BDE8F88F286A10F01B
:100B8000020FF2D1012E03D1E86920F08050E86114
:100B9000E069E8B3696801F00C0108295ED0022819
:100BA00010D0C7F86080FFF7D3FC0446286810F027
:100BB000007F66D0FFF7CCFC001B022841D9032040
:100BC000BDE8F88FC7F86080FFF7C2FC06462868CA
:100BD00010F0007F0BD0FFF7BBFC801B022802D96E
:100BE0000320BDE8F88F286810F0007FF3D1206A59
:100BF000B0F5803F05D16868A16820F40030084353
:100C00006860616A206A0843696821F4741100E031
:100C100037E008436860C7F860B0FFF799FC044606
:100C2000286810F0007F2CD1FFF792FC001B0228EF
:100C300002D90320BDE8F88F286810F0007FF3D0B8
:100C40001FE0286810F0007FB4D11AE000100240C5
:100C500000004242800442420070004001280DD052
:100C60006868226A00F48031914204D1616A00F41C
:100C70007010884205D00120BDE8F88F0120BDE842
:100C8000F88F0020BDE8F88F90F85100704770B5DC
:100C90000446002C09D0606A002540B125616561D9
:100CA000A56294F8510040B10CE0012070BD60686D
:100CB000B0F5827FF4D0E561F2E784F85050204629
:100CC00000F040F8022084F851002068016821F00B
:100CD00040010160A088218900F4827001F4044180
:100CE0000843A18901F400610843217C01F002015D
:100CF0000843217D01F001010843218B01F40071BB
:100D00000843217F01F03801084394F8201001F0D6
:100D100080010843218D01F40051084321680860D7
:100D2000A169042000EA1140216848602068C16977
:100D300021F40061C1616565012084F85100002043
:100D400070BD000030B585B0002400940194029479
:100D5000039400681449884223D11448816941F4FE
:100D600080518161816901F480510491816941F070
:100D70000401816180690E4D00F004000490A02000
:100D80000090022001900320039069462846FFF757
:100D9000D9FA4020CDE90004694628460294FFF7BD
:100DA000D1FA05B030BD0000003001400010024013
:100DB000000801402DE9F84F04468B4692461D4637
:100DC000002694F8500001280DD04FF0010884F857
:100DD0005080FFF7BDFB074694F85100B14601284B
:100DE00004D00226B4E00220BDE8F88FBBF1000F6A
:100DF0001CD05FEA0A0019D0032084F85100C4F81F
:100E00005490C4F830B0A4F834A0A4F836A0C4F8C4
:100E10003890A4F83C90A4F83E90C4F84490C4F8EC
:100E20004090A068B0F5004F02D00BE001268FE0A3
:100E30002068016821F0400101602068016841F4E8
:100E4000804101602068016811F0400F03D1016802
:100E500041F040010160E068B0F5006F05D06068C6
:100E600088B3BAF1010F33D03CE0606810B1BAF139
:100E7000010F09D1206B21680088C860206B801C9D
:100E80002063E08E401EE086E08E002847D0206878
:100E9000816811F0020F09D0216B0988C160206BB5
:100EA000801C2063E08E401EE08608E0FFF750FBC8
:100EB000C01BA84202D3B5F1FF3F05D125B1E08E9A
:100EC0000028E4D12BE003E0032684F851803FE0C2
:100ED000206B216800780873206B401C2063E08E33
:100EE000401EE086E08ED0B12068816811F0020FCC
:100EF00009D0216B09780173206B401C2063E08EC0
:100F0000401EE08608E0FFF723FBC01BA84202D387
:100F1000B5F1FF3F0ED16DB1E08E0028E4D13A4625
:100F20002946204600F08EFC08B120206065A068AC
:100F300020B107E0032684F8518009E02068C168E9
:100F400080680090606D08B1012601E084F851804E
:100F500084F850903046BDE8F88F2DE9F84F0446EC
:100F60000A9E8A46934698460125002794F8500029
:100F700001280ED0012084F85000FFF7E9FA8146DD
:100F800094F85100616801280DD0B1F5827F07D136
:100F900002E00220BDE8F88FA16809B9042802D058
:100FA000022700F0DBB8BAF1000F22D0BBF1000F2E
:100FB0001FD05FEA08001CD094F85100042802D02A
:100FC000052084F8510000206065C4F838B0A4F80A
:100FD0003E80A4F83C80C4F830A0A4F83680A4F881
:100FE0003480206460642068016811F0400F02D0F2
:100FF00005E00127B2E0016841F040010160E068CE
:10100000B0F5006F06D0606800284CD0B8F1010F31
:1010100049D081E0606810B1B8F1010F3CD1206B7C
:1010200021680088C860206B801C2063E08E401E11
:10103000E08631E02068816811F0020F0DD0E18E6A
:1010400059B1012D09D1216B0988C160206B801C29
:101050002063E08E401EE08600252068816811F044
:10106000010F0BD0E18F49B1C068A16B0880A06B64
:10107000801CA063E08F401EE0870125FFF768FA1F
:10108000A0EB0900B04207D3B6F1FF3F04D003271D
:10109000012084F8510061E0E08E0028CAD1E08F81
:1010A0000028C7D13EE0206B216800780873206BD0
:1010B000401C2063E08E401EE0862DE020688168A1
:1010C00011F0020F0DD0E18E59B1012D09D1216B24
:1010D00009780173206B401C2063E08E401EE0867F
:1010E00000252068816811F0010F0BD0E18F49B114
:1010F000C068A16B0870A06B401CA063E08F401E0D
:10110000E0870125FFF724FAA0EB0900B04202D3E3
:10111000B6F1FF3F10D17EB1E08E0028CED1E08F36
:101120000028CBD14A463146204600F08BFB40B127
:1011300001272020606511E00327012084F8510079
:101140000CE0A06818B92068C16880680090606DE4
:1011500008B1012702E0012084F85100002084F842
:1011600050003846BDE8F88F401EB0F1807F01D3B3
:10117000012070474FF0E0214861044AF0201070D0
:1011800000208861072008610020704723ED00E0FF
:1011900010B504490448FFF7ADF80249491E08702C
:1011A00010BD0000290000201400002070B586B09A
:1011B000002421480094019402940394816941F031
:1011C00020018161816901F020010491816941F070
:1011D00004018161816901F004010491816941F098
:1011E000080181618069154E00F00800049000221A
:1011F0004FF444713046FFF7A3F910200125CDE9E3
:1012000000050220CDE9024069463046FFF79AF812
:101210004FF440408DE8310069460948FFF792F8E5
:101220004FF44070CDE9000569463046CDE90245EE
:10123000FFF788F806B070BD0010024000080140BA
:10124000000C01400E4810B50C4901604FF482714A
:10125000416000218160C1604FF400720161C0E90A
:1012600005121022C0E90721416281620A21C16290
:10127000FFF70DFD002800D0FEE710BD0030014053
:101280004C0000207047000081B007494FF4FA522B
:101290000968B1FBF2F14843009000BF0098411E7D
:1012A0000091FAD201B070473C0000200648417816
:1012B00011B14178491E41708178002902D08178AE
:1012C000491E8170704700002D0000207CB541F65A
:1012D000FF75FFF707F80024FF2000F0DFFA641C19
:1012E0000A2CF9DB00F0A6FA40208DF8000000205F
:1012F0008DF801008DF802008DF803008DF80400D0
:1013000095208DF8050000246E46305D00F0C6FA89
:10131000641C062CF9DB00E06D1E00F0A5FA012824
:1013200001D0002DF8D1FEF7DDFFFF2000F0B6FA66
:101330000149012048707CBD0000002010B5064C1A
:101340003220207000F090FA00F08EFAFF2802D0D0
:1013500021780029F8D110BD2F00002070B5104D64
:1013600004460A200E46287000F07EFAFF2803D0BB
:10137000FE2805D0002070BD28780028F4D1F9E7B8
:10138000651C00F071FA20706C1C00F06DFA28707A
:10139000B61EF5D100F068FA00F066FA012070BDC3
:1013A0002E00002070B50C460546FFF7C7FFFF284A
:1013B00001D0FF2070BD284600F070FA200E00F02A
:1013C0006DFAC4F3074000F069FAC4F3072000F097
:1013D00065FAE0B200F062FA0020402D02D0482DFC
:1013E00002D002E0952000E0872000F057FA4C2D53
:1013F00001D100F039FA0A2400F036FA0106D9D5F5
:10140000641E14F0FF04F7D170BD2DE9F0410E46C3
:1014100005460024FFF792FFFF2828D1304600F050
:101420003DFAFD2E1FD00026287800F037FA6878A4
:10143000AD1C00F033FA761E16F0FF06F4D100F072
:1014400013FA00F011FA08E000F00EFA074600F077
:101450001F00052803D0641CE4B2402CF4D900F02E
:1014600003FA0028FBD007F01F00052802D0002057
:10147000BDE8F0810120FBE72DE9F84310B1012020
:10148000BDE8F883484E307880077DD4FFF71EFF13
:1014900000F0D0F9002739464020FFF783FF0128EC
:1014A00070D1DFF80881642188F800104FF4D571FD
:1014B0004820FFF777FF01280DD000217720FFF7A4
:1014C00071FF012840D800216920FFF76BFF012838
:1014D0003AD8022739E000246D4600F0C5F92855B6
:1014E000641CE4B2042CF8D39DF80200012849D111
:1014F0009DF80300AA2845D14FF0804944460021B9
:101500007720FFF74FFF012804D849466920FFF7ED
:1015100049FF10B120780028F1D1207890B3002144
:101520007A20FFF73FFF68BB002400F09DF92855A3
:10153000641CE4B2042CF8D39DF80000400601D5E9
:1015400006271FE002271DE001274446022F4FF027
:10155000000101D0412006E07720FFF723FF01289A
:1015600004D800216920FFF71DFF10B12078002862
:10157000ECD1207828B14FF400715020FFF712FF12
:1015800000B10027B77000E00BE0FEF7ABFE00F003
:101590006BF927B1307820F00100307001E00020B5
:1015A000707030786CE70000000000202E000020F2
:1015B0007FB515460E4610B1042004B070BD01245D
:1015C0004B4A052E04D01078C00715D00320F4E74D
:1015D00047492878497828B1012807D0022808D03F
:1015E000042482E031B10020507003E0FFF76EFE6A
:1015F00000E06970002478E000F01CF90B2E52D056
:1016000005DCE6B3012E07D0022E69D142E00C2E94
:101610004CD00D2E64D155E000214920FFF7C2FEC9
:1016200070BB10216846FFF799FE48B39DF8001083
:101630000120B0EB911F0AD19DF808209DF80910F8
:1016400000EB0220084400048009286038E09DF87F
:1016500005009DF80A1000F00F0000EBD1109DF876
:1016600009109DF8072001F0030100EB41009DF8EF
:101670000810890901EB82019DF8062001E00DE0C8
:101680002FE002F0030201EB8221C01F491C8140C0
:10169000296015E04FF40070288011E0FFF74EFE3E
:1016A000FF280DD01DE00021492001E000214A2043
:1016B000FFF778FEA8B910212846FFF74FFE80B14A
:1016C00000240EE000217A20FFF76CFE40B90024D0
:1016D00000F0CAF8641CE4B205F8010B042CF7D33F
:1016E0000424FEF7FFFD00F0BFF8204665E7000088
:1016F000000000202DE9F0411C4616460D4638B981
:1017000034B11D480178C90704D00320BDE8F08139
:101710000420FBE78078400700D4560200F08AF8E6
:101720004FF40077012C314604D05220FFF73AFEE7
:1017300058B118E05120FFF735FEA0B939462846C8
:10174000FFF70CFE78B100240DE03E4631462846F6
:10175000FFF704FE18B1641E05F50075F6D10021EF
:101760004C20FFF71FFEFEF7BDFD00F07DF80CB129
:101770000120CBE70020C9E70000002008B10120CC
:101780007047014800787047000000202DE9F041C3
:101790001C4616460D4638B934B1254F3878C00777
:1017A00004D00320BDE8F0810420FBE7387840072F
:1017B00001D50220F6E7B878400700D4560200F0C1
:1017C00039F8012C10D0B878800707D50021772090
:1017D000FFF7E8FD21465720FFF7E4FD3146592089
:1017E000FFF7E0FD60B11AE031465820FFF7DAFD5F
:1017F000A8B9FE212846FFF708FE80B100240EE0BC
:10180000FC212846FFF701FE18B1641E05F500759E
:10181000F6D1FD210020FFF7F8FD00B90124FEF705
:1018200061FD00F021F80CB10120BBE70020B9E711
:1018300000000020002210210148FEF781BE0000B8
:101840000008014038B504460B4600920022802172
:10185000204600F033F828B1606D40F0200060654C
:10186000032038BD002038BD0EB5FF208DF80800DC
:1018700000208DF804000848FFF706FA0128FAD185
:101880004FF47A700090012301AA02A90248FFF7E1
:1018900064FB9DF804000EBD4C00002001B5064815
:1018A000FFF7F2F90128FAD14FF47A730122694661
:1018B0000148FFF77FFA08BD4C0000202DE9F843EE
:1018C00004460F4690469946089DFEF741FE401B90
:1018D000A9EB0005FEF73CFE06462D480068C0F364
:1018E000CB30684300902068806837EA00000ED053
:1018F0000020404546D0B9F1FF3F3BD0FEF728FE1F
:10190000801BA84205D225B1009870B32FE00120BA
:10191000EFE72068416821F0E00141606068B0F5C0
:10192000827F0BD1A068B0F5004F02D0B0F5806F78
:1019300004D12068016821F040010160A06AB0F57F
:10194000005F09D12068016821F40051016020681E
:10195000016841F400510160012084F85100002029
:1019600084F850000320BDE8F883FFE700250098C5
:10197000401E00902068806837EA000005D00020F3
:101980004045B8D10020BDE8F8830120F8E7000009
:101990003C00002070470000074810B50178491C42
:1019A000017001780A2903D300210170FFF77EFC42
:1019B000BDE81040FEF7D2BD2D00002030B58FB03D
:1019C00028216846FEF7C7FB14210AA8FEF7C3FBCF
:1019D0000120010400248DE8130004904FF4E0106E
:1019E000CDE90810022507956846FEF737FF00B1DC
:1019F000FEE70F20CDE90A054FF48060CDE90C40E9
:101A000002210AA80E94FEF741FE002800D0FEE74E
:101A10000FB030BD0E48016841F00101016041681E
:101A20000C4A11404160016821F4102121F08071BD
:101A30000160016821F480210160416821F4FE0108
:101A400041604FF41F0181600349C0030860704783
:101A5000001002400000FFF808ED00E0FFF70CBDA9
:101A6000FFF7A6BDFFF746BEFFF788BEFFF78EBEA5
:101A70000FB4054B10B503A9044A029800F017F8FB
:101A800010BC5DF814FB00000B3300084800002078
:101A900002E008C8121F08C1002AFAD17047704737
:101AA000002001E001C1121F002AFBD170472DE97F
:101AB000F84F9946924688460546002706E02528B5
:101AC0000AD051464A4690476D1C7F1C2878002852
:101AD000F5D13846BDE8F88F002315F8011F1846E8
:101AE0002E2915D115F8011F04232A290DD06FF0D6
:101AF0002F022978A1F13004092C09D800EB8000CD
:101B000002EB400008446D1CF3E758F8040B6D1C11
:101B10002A78002ADDD0632A07D0732A0FD0104616
:101B200051464A4690477F1C2AE018F8042B8DF84E
:101B3000002000218DF801106E46012103E058F8C5
:101B4000046B4FF0FF315A074FF0000401D409E055
:101B5000641C84420BDA8C42FADB325D002AF7D136
:101B600005E0641C8C42FCDB305D0028F9D1274481
:101B700004E016F8010B51464A469047641EF8D21D
:101B80006D1CA3E710B5044604F5805000220271D5
:101B9000521EC262204601F0D2FD08B1032010BDE2
:101BA00094F8FE0194F8FF1140EA0120A0F52A41C3
:101BB000553901D0022010BD94F8360094F8391040
:101BC00094F8372040EA016094F83810090441EA9B
:101BD0000221084320F07F410D48814201D10020BD
:101BE00010BD94F8521094F8552094F8533041EAFF
:101BF000026194F85420120442EA0322114321F0B6
:101C00007F41814201D1002010BD012010BD0000A4
:101C10004641540000E0401C02780AB18A42FAD1E1
:101C20000078704770B4002214461C4D00F58050B7
:101C300002EB420355F823C0BCF1000F0FD0066839
:101C4000B4450DD105EB83038668D3F804C0B445D1
:101C500006D11B89B0F806C0634504D000E001241A
:101C6000521C022AE4D3022A01D0A1B908E024B907
:101C7000022902D070BC1220704770BC002070474F
:101C800002EB420005EB80004089B0F5807F02D076
:101C900070BC0020704770BC102070476421002089
:101CA00010B40021074B8C4601EB410253F822404F
:101CB000844201D143F822C0491C0229F4D310BC4C
:101CC000704700006421002000F58050426A121D18
:101CD000006800F58050438980785843B1FBF0F0EC
:101CE00052F8041B21B1884204D21168084470479D
:101CF00000207047401A121DF2E7891E00F580503F
:101D00004269921E8A4201D800207047826A807818
:101D100001FB0020704700002DE9F05F80460F4670
:101D2000387820F04000401E00EB800101EBC00439
:101D300000250126DFF864A007F101094FF6FF7BBB
:101D40001AF80500395C10F8090041EA00207EB15C
:101D500001F07CF80646FF2C07D22046641C38F8B8
:101D6000100001F073F8B04207D00020BDE8F09FEA
:101D7000584502D00020BDE8F09F6D1C0D2DDFD32B
:101D8000387810F0400F06D02EB138F8140010B19A
:101D90000020BDE8F09F0120BDE8F09F623B0008F5
:101DA0002DE9F04180460F4608F58055002F08D0F8
:101DB0003946404601F0FDFA022809D20120BDE86B
:101DC000F081EE6816B16869B04208D8012606E0D5
:101DD000B0F1FF3FF3D069698142F0D83E46344606
:101DE000641C6869A04205D80224022E02D2002099
:101DF000BDE8F0812146404601F0DBFA48B1B0F180
:101E0000FF3FF5D00128F3D0B442E9D10020BDE86E
:101E1000F0816FF070422146404601F0ADFC28B9D8
:101E200027B122463946404601F0A6FC28B10128D8
:101E30000FD001242046BDE8F081EC602869B0F1A4
:101E4000FF3FF7D0401E2861687940F001006871BB
:101E5000F0E74FF0FF34EDE72DE9F84F8846D8F86A
:101E6000005000E06D1C29782F29FBD05C29F9D0A7
:101E700000F580500090D0F820900024264630468F
:101E8000761C285C202808D32F2806D05C2804D094
:101E9000FF2C09D30620BDE8F88FA919C8F8001057
:101EA000202819D2042618E0C0B2012100F0B2FFA8
:101EB00007464FB1802F0AD2394661A0FFF7AAFE2C
:101EC00028B10620BDE8F88F0620BDE8F88F20462F
:101ED000641C29F81070D2E700264CB1601E39F856
:101EE0001000202801D02E2802D1641E002CF5D12C
:101EF00054B1002029F8140000980B222021806999
:101F000001F015FC002703E00620BDE8F88F7F1CD8
:101F100039F817002028FAD02E28F8D01FB146F043
:101F2000030600E0641E24B1601E39F810002E285C
:101F3000F8D14FF00008C2464FF0080B38467F1C1E
:101F400039F8105005B3202D03D02E2D04D1A7420F
:101F500002D046F00306F1E7DA4501D2A74219D1D3
:101F6000BBF10B0F0ED0A74201D046F003060BD8F1
:101F700027464FF0080A4FF00B0B4FEA88604FEAF4
:101F80001068DBE746F00306009880690178E529D0
:101F90002ED02FE0802D0BD30021284600F03AFFF1
:101FA00005461DB12948284410F8805C46F0020619
:101FB00025B1294626A0FFF72DFE18B15F2546F072
:101FC00003060EE0A5F14100192802D848F00208E6
:101FD00007E0A5F16100192803D848F00108413055
:101FE00085B20098816950460AF1010A0D54A5E7AF
:101FF00005210170BBF1080F03D14FEA88604FEA59
:1020000010680C2030EA080003D0032030EA0800F2
:1020100001D146F0020616F0020F0BD108F00300C2
:10202000012801D146F0100608F00C00042801D167
:1020300046F0080600988069C6720020BDE8F88F57
:10204000222A3A3C3E3F7C7F00000000E23A000832
:102050002B2C3B3D5B5D0000401E022813D20B4B36
:1020600000EB400103EB81025089B0F5807F00D185
:10207000002008B1401E80B2508110B9002043F802
:1020800021000020704702207047000064210020DA
:102090002DE9F04107460E460021384600F0CCF904
:1020A00098B9002407F580552969286801F047FB95
:1020B00058B969690A78E52A0CD05AB1002401217F
:1020C000384600F073F80028EED0042800D107202D
:1020D000BDE8F081641CB442F7D0F0E72DE9F05F71
:1020E00083460021584600F0A7F900285CD1FF265E
:1020F000B0460BF580544FF6FF7AA4F824A021696E
:10210000206801F01CFB81465FEA09004BD167693A
:102110003D786DB1F87A00F03F00E52D04D010F065
:10212000080F08D00F2806D0FF26A4F824A032E01C
:102130004FF0040937E00F2801D0D6B11EE0206A25
:1021400048B315F0400F06D097F80D8025F04005F4
:102150002E46E188A184B54208D1797B414505D15D
:102160003946FFF7D9FD08B1701E00E0FF20C6B266
:1021700011E0384601F0FDFB404514D0A169C87A52
:1021800010F0010F04D10B22384601F0BBFA50B118
:10219000FF26A4F824A00021584600F007F8814645
:1021A0005FEA0900ABD04846BDE8F09F2DE9F04159
:1021B0000D4600F58054E088471C3804000C0CD014
:1021C000226952B1206800F580514B895B09B7FB49
:1021D000F3FC03FB1C731BB185E00420BDE8F08118
:1021E000521C2261E26882B14B8989785B09B7FB96
:1021F000F3F3491E0B4276D1114601F0DAF8064698
:10220000012E08D80220BDE8F0810889B8426AD8BA
:102210000420BDE8F081B6F1FF3F18D0206841F2FC
:1022200014010958B14258D8A5B1E168FFF7B8FDCB
:102230000646300011D0012E12D0B6F1FF3F12D069
:10224000206801F0F9FB88B10120BDE8F081012090
:10225000BDE8F0810420BDE8F0810720BDE8F081F1
:102260000220BDE8F0810120BDE8F08141F20A01C1
:1022700020680A5A002101F05AFA31462068FFF717
:102280003CFD216801F58051C8620025206800F5F9
:102290008050807800281AD94FF00108206800F596
:1022A000805080F80480206801F0C6FB10B1012046
:1022B000BDE8F081206800F58050C16A491CC16208
:1022C0006D1C206800F580508078A842E6D8206810
:1022D00000F58050C16A491BC162E6603146206842
:1022E000FFF70BFD2061E78041F20A012068095ADF
:1022F0004909B7FBF1F201FB127100EB411060617B
:102300000020BDE8F08100002DE9F04383B00746CE
:1023100007F58054D4F81880266A0C224146684696
:1023200001F0FCF99DF80B0010F0010F1AD000200D
:1023300088F80B00206201252B463246694640464C
:1023400000F0ECFF3846FFF7C9FE10B96D1C642D94
:10235000F2D3642D0DD004280CD19DF80B0088F821
:102360000B0026629DF80B0010F0020F10D0002029
:1023700004E0072003B0BDE8F083401C36F81010DD
:102380000029FAD12B491930A1FB0010860800E082
:10239000012631463846FFF77BFE05464FF001081F
:1023A00035BB761E24D0E088811B384600F044F807
:1023B000054628001CD1A06901F0DBFA814621699D
:1023C000206801F0BCF9054695B9F2B24B46616947
:1023D000206A00F023FF206800F5805080F8048018
:1023E00000213846FFF7E2FE05460DB9761EE6D11C
:1023F000DDB92169206801F0A2F90546280014D151
:1024000020220021606901F092F90B22A169606924
:1024100001F084F9A0696169C07A00F018000873BE
:10242000206800F5805080F8048003B02846BDE89D
:10243000F08300004FECC44E70B50D4600F580549B
:10244000E580A368012B05D0206800F58050416924
:10245000994201D8022070BD1BB90178032900D12F
:10246000436AC3B141898078490901FB00F6B5424E
:102470001DD31946206800F09CFF0346B3F1FF3FCF
:1024800010D0022B05D3206800F580504069984297
:102490000AD8022070BD0189A94201D8022070BD6E
:1024A000406A08E0012070BDAD1BB542E1D219467B
:1024B0002068FFF722FCE36098B1216801F58052A3
:1024C00053895B09B5FBF3F3184420615089400937
:1024D000B5FBF0F200FB125001EB401060610020F0
:1024E00070BD022070BD000010B5002208490B5CD1
:1024F000002B0AD101220A540A1801EB8000127A3B
:1025000040680168104688470246104610BD00002A
:102510007C230020054B03EB000C03EB80009CF8B0
:1025200008C0406803696046184700007C2300200B
:1025300030B4DFF818C00CEB00040CEB8000247AF8
:102540004068D0F808C0204630BC60477C2300209B
:1025500004490A1801EB8000127A4068416810466D
:10256000084700007C23002030B4DFF818C00CEBD3
:1025700000040CEB8000247A4068D0F80CC02046A0
:1025800030BC60477C2300200020084900E0401C4C
:10259000022805D200EB400251F82220002AF6D191
:1025A000022801D0012070470020704764210020DC
:1025B00010B50446204600F0DDFA00280DD1204673
:1025C00001F065FA002808D104F58054A06AFFF7ED
:1025D00043FD002801D10021216010BD2DE9F74FF6
:1025E0008B46144600226946204600F045FC07460B
:1025F000D4F8009038005ED109F58055D5F81480E4
:102600002869A8F10201884202D8CBF8000052E004
:1026100095F800A00024BAF1010F04D02E6A002121
:102620000020B1B11FE002263146484600F0C1FE4D
:10263000B0F1FF3F03D0012803D020B104E001270F
:1026400032E0022730E0641C6869761C8642EBD3D6
:102650002AE03146761C484601F071F807463800FA
:1026600022D148466989BAF1020F0ED00278C378A8
:1026700090F801C042EA036283781B0443EA0C230A
:102680001A4332F0704209D009E00278437852EAE6
:10269000032200D1641C801C891E02E0641C001D02
:1026A000091FB8F10108BCD12C61687940F0010024
:1026B0006871CBF8004003B03846BDE8F08F2DE9D3
:1026C000F04182B00746904600253C464E1E002E43
:1026D00013DD6B46012201A9404600F072F9009813
:1026E00001280AD19DF804000D2804D004F8010B3C
:1026F0006D1C0A2801D0B542EBDB002020701DB113
:1027000002B03846BDE8F08102B00020BDE8F0819B
:102710002DE9F74181B0164602980090684600F016
:10272000C8FE0446002C03DA04B00B20BDE8F0819B
:10273000124F57F824504FF0000835B12846FFF7E4
:10274000AFFA4FF4805000F805800198002803D0BC
:102750004FF4805101F8008047F8240001D0012E89
:1027600003D004B00020BDE8F081002202A901A836
:1027700000F082FB04B0BDE8F081000044000020BE
:102780002DE9F74FADF5825D002817D000F5805791
:102790004FF00008C7F8008002F01F0641F2440124
:1027A0000DF1180926F00102694409F5805000F086
:1027B00063FB0546280007D000F0D8B8092013B005
:1027C0000DF5805DBDE8F08F0DF5805103A808631D
:1027D00067488863496C484600F05AFD05460DF588
:1027E0008051CC6A65B924B136F0010003D00121D3
:1027F00002E0062504E000214846FFF713FA0546EB
:1028000016F01C0F66D085B1042D08D1FFF7BCFE71
:1028100020B14846FFF778FD054600E0122546F056
:1028200008060DF58050C46A09E0E07A10F0110F37
:1028300001D0072503E016F0040F00D00825002D75
:1028400056D116F0080F53D000F031FEA073010AE4
:10285000E173010C2174000E607484F80B8084F81D
:102860001C8084F81D8084F81E8084F81F800DF57C
:1028700080502146806900F09BFE82460021204660
:1028800001F06FF80DF580510120896901F5805143
:102890000871BAF1000F2BD00DF58050806900F55A
:1028A0008050D0F82CB00DF580505146806901F071
:1028B00021F8054628001BD10DF58052AAF1010030
:1028C000916901F58051C8605946906900F037FF61
:1028D00005460DE065B9E07A10F0100F01D004252F
:1028E00006E016F0020F03D010F0010F00D007250C
:1028F000C5B916F0080F01D046F020060DF580503E
:10290000806900F58050C06AF8613C6236F00100D1
:1029100001D0012100E00021484600F0F1FDB8623D
:1029200000B9022515BBBE7187F807800DF58050F0
:102930002146806900F03CFE3861207FE17F627FA4
:1029400040EA0160A17F090441EA02210843F860DE
:10295000C7F80880C7F81880C7F824800DF58050A4
:102960008069386000F58050C088B880284626E726
:102970007C21002010B594B0044601910020029003
:1029800003902078002807D014F8011B01A800F05C
:102990008DFF20780028F7D1029800280DDB6B46C8
:1029A00004A9029A019800F03CF930B90099029804
:1029B000884202D1039814B010BD14B04FF0FF301C
:1029C00010BD2DE9F05F82468846164699460020E4
:1029D000C9F80000504601F05AF800281ED10AF547
:1029E0008054E079002819D1A07910F0010F14D09B
:1029F000A168E068401A864200D90646002E6CD0D5
:102A00002368A16803F580525089B1FBF0FC00FBFC
:102A10001C1CBCF1000F03D085E00720BDE8F09F2F
:102A2000B1FBF0F09278521E1040C7B2B7B929B18D
:102A3000606A28B15046FFF747F905E0206903E0D6
:102A40001846616900F0B5FC022803D20220E0714B
:102A5000BDE8F09FB0F1FF3F1ED060616169206862
:102A6000FFF74BF9E0B100EB070B206800F5805051
:102A70004189B6FBF1F57DB381787A198A4200D994
:102A8000CD1B40782B465A464146FFF751FD58B1C1
:102A90000120E071BDE8F09F0120E071BDE8F09FEA
:102AA0000220E071BDE8F09FA07910F0400F0DD03A
:102AB000A069A0EB0B00A84208D2216801F5805163
:102AC0004A89514600FB028000F028FE206800F58C
:102AD0008050408945433DE000E048E0A2695A4506
:102AE0001FD0A17911F0400F0DD04078012351463D
:102AF000FFF73AFD18B10120E071BDE8F09FA07921
:102B000020F04000A0712068012300F580505A4653
:102B100040785146FFF70CFD18B10120E071BDE887
:102B2000F09FC4F818B02068A16800F58050408973
:102B3000B1FBF0F200FB1212851AB54200D93546FE
:102B4000B1FBF0F200FB121000EB0A012A464046EE
:102B500000F0E4FDA844A0682844A060D9F8000073
:102B60002844C9F80000761B002E7FF449AF0020EE
:102B7000BDE8F09F70B50546284600F088FF024684
:102B8000002A4CD105F58054A07910F0200F46D0D2
:102B900010F0400F0FD02068012300F58050294627
:102BA0004078A269FFF7E0FC08B1012070BDA07970
:102BB00020F04000A071E169206800F0C0FD0246ED
:102BC000002A2CD1256AE87A40F02000E872207BA8
:102BD0002877A089000A6877E068000CA877E06889
:102BE000000EE8772846216900F0BBFE00F05FFC8C
:102BF000A875010AE975010C2976000E6876002097
:102C0000A874E874A07920F02000A0712168012048
:102C100001F580510871206800F0B8FE02461046A8
:102C200070BD2DE9F05F81460F461646984600209C
:102C3000C8F80000484600F02AFF00281DD109F519
:102C40008054E079002818D1A07910F0020F13D039
:102C5000A068811900D30026002E00F0CE802268E3
:102C6000A16802F580535889B1FBF0FC00FB1C1CE5
:102C7000BCF1000F03D099E00720BDE8F09FB1FB45
:102C8000F0F09B785B1E184000F0FF0ABAF1000FCD
:102C900025D129B1606A50B14846FFF715F80AE01E
:102CA000206940B900211046FFF77AF803E010468A
:102CB0006169FFF775F8002875D0012806D0B0F1DA
:102CC000FF3F07D06061216941B108E00220E07157
:102CD000BDE8F09F0120E071BDE8F09F2061A07980
:102CE00010F0400F11D02068012300F580504946B4
:102CF0004078A269FFF738FC18B10120E071BDE807
:102D0000F09FA07920F04000A07161692068FEF773
:102D1000F4FFD0B100EB0A0B206800F58050418928
:102D2000B6FBF1F56DB381780AEB05028A4201D951
:102D3000A1EB0A0540782B465A463946FFF714FCAA
:102D400038B10120E071BDE8F09F0220E071BDE8DC
:102D5000F09FA069A0EB0B00A8420CD2216801F5FE
:102D600080514A8900FB0271484600F0D7FCA079E7
:102D700020F04000A071206800F580504089454354
:102D80002EE0A16959450FD0E268A16891420BD2AB
:102D9000407801235A464946FFF7CAFB20B101207B
:102DA000E071BDE8F09F28E0C4F818B02068A16881
:102DB00000F580504089B1FBF0F200FB1212851A39
:102DC000B54200D93546B1FBF0F200FB1210484481
:102DD0002A46394600F0A2FCA07940F04000A071DC
:102DE0002F44A0682844A060D8F800002844C8F800
:102DF0000000761B002E7FF432AFE168A0688842A5
:102E000000D9E060A07940F02000A0710020BDE86A
:102E1000F09F0000802805D30B4A41B1B0F5807FB8
:102E200001D300207047803832F81000704700212D
:102E300032F81130834203D0491C89B28029F7D37C
:102E400001F18000C0B270479C3B00080021084B94
:102E500000E0491C33F811200AB18242F9D133F85D
:102E60001120002A02D0034830F8110070470000FA
:102E70009C3C00087C3E00082DE9F04F054685B0DB
:102E8000084617464FF00008C5F8008000F011FB17
:102E90000646300003D505B00B20BDE8F08FDB48B7
:102EA00050F82640BCB12C6004F58055287828B134
:102EB0006878FFF74DFB10F0010F10D085F8008007
:102EC000F0B26870FFF710FB10F0010F13D005B0DF
:102ED0000320BDE8F08F05B00C20BDE8F08F37B1BE
:102EE00010F0040F03D005B00A20BDE8F08F05B044
:102EF0000020BDE8F08F37B110F0040F03D005B00B
:102F00000A20BDE8F08F41F20A01621868780221B8
:102F1000FFF700FB30B96889B0F5007F02D3B0F548
:102F2000805F03D905B00120BDE8F08F002631464F
:102F30002046FEF727FE012829D100216F4604EB29
:102F4000011000F5DF70027952B1027AC37A42EAC9
:102F50000362837A407A1B0443EA0020104300E0B6
:102F6000002047F82100491C0429E8D34FF000094C
:102F700057F8296026B131462046FEF703FE00E0EF
:102F8000022020B109F10109B9F1040FF0D303289F
:102F900004D038B105B00D20BDE8F08F05B0012098
:102FA000BDE8F08FE07A217B6B8940EA01209842EE
:102FB00003D005B00D20BDE8F08FA07DE17D40EA93
:102FC000012068B994F8240094F8271094F825207B
:102FD00040EA016094F82610090441EA02210843FE
:102FE000A861217CE970012905D0022903D005B030
:102FF0000D20BDE8F08F01FB00FA677BAF7017B1C1
:10300000791E0F4203D005B00D20BDE8F08F617C22
:10301000A27C41EA02222A814FEA531CB2FBFCF156
:103020000CFB112119B105B00D20BDE8F08FE17C3A
:1030300094F8149041EA092179B994F8201094F891
:10304000239094F821B041EA096194F822904FEA64
:10305000094949EA0B2941EA090194F80E9094F8CC
:103060000FB049EA0B29B9F1000F0AD0B2FBFCFC02
:1030700009EB0A0BDC44614507D205B00D20BDE821
:10308000F08F05B00D20BDE8F08FA1EB0C01B1FB76
:10309000F7F159B3012740F6F67B594500D30227D3
:1030A0004FF6F67B594500D30327891C6961EE6111
:1030B000B144C5F82090B444C5F828C0032F19D0F6
:1030C00082B309EB0A026A62022F30D001F00102DA
:1030D00001EB410102EB5101491E1944B1FBF3F12F
:1030E000814226D905B00D20BDE8F08F05B00D2036
:1030F000BDE8F08F1AB105B00D20BDE8F08F94F84F
:103100002C2094F82FC094F82D9042EA0C6294F889
:103110002EC04FEA0C4C4CEA092C42EA0C026A62BF
:103120008900D9E7FFE705B00D20BDE8F08F490021
:10313000D2E74FF0FF302861E86080206871032FEC
:1031400056D194F8300094F8311040EA012001285B
:103150004ED1711C204600F0F2FAE8BB85F80580DC
:1031600094F8FE0194F8FF1140EA0120A0F52A41ED
:1031700055393DD12078E178627840EA0160A17844
:10318000090441EA022108432149884230D194F8D8
:10319000E40194F8E71194F8E52140EA016094F81D
:1031A000E611090441EA022108431A4988421FD165
:1031B00094F8E80194F8EB1194F8E92140EA0160F1
:1031C00094F8EA11090441EA02210843286194F8BD
:1031D000EC0194F8EF1100E00AE040EA016094F895
:1031E000EE1194F8ED21090441EA02210843E86058
:1031F0002F7009490888401C0880E8802046FEF7A7
:103200004FFD05B00020BDE8F08F00004400002015
:103210005252614172724161400000202DE9F00379
:103220004B730F23CB7200230B738B76CB76531E1D
:1032300003EB830C0CEBC30400239C46134D4FF6A9
:10324000FF774E1CBB4203D02346641C30F813307A
:1032500015F80C8001F8083015F80C904FEA132887
:1032600009F806800BB94FF6FF730CF1010CBCF1A5
:103270000D0FE7D3BB4202D030F8140008B942F07A
:1032800040020A70BDE8F00370470000623B00088E
:1032900073B50546019801782F2901D05C2901D129
:1032A000401C019005F580540026A6600198007826
:1032B000202806D200212846FFF7BEF8666102B03A
:1032C00070BD01A92846FEF7C7FD0028F7D12846A2
:1032D000FEF704FFA169C97A38B10428EFD111F0D3
:1032E000040FECD1052002B070BD11F0040FFAD12B
:1032F0006169C87A10F0100F04D0206800F058F906
:10330000A060DEE7052002B070BD38B504468DF838
:10331000000069460320ABBE204638BD70B582B0C0
:10332000054616461C460B22284600F0F7F9052CE8
:1033300016D93088A0B136F8021B002320460C466F
:1033400060F35F04490814F4803F03D084F0210443
:1033500084F488345B1C102BF0D330880028EAD129
:1033600007216B4604F00F0000F13002392A01D921
:10337000D01DC2B20846491E1A542409002CF1D1AE
:103380007E205854002200E0521C8A4202D2A85CDF
:103390002028F9D1082903D20846491C185C00E00E
:1033A00020209446521C05F80C00082AF2D302B0E3
:1033B00070BD2DE9F04707460D46022D04D307F5F1
:1033C00080546069A84201D8012609E04FF0FF3619
:1033D0002078012807D0022833D0032848D00126BE
:1033E0003046BDE8F08705EB55086089216AB8FBD7
:1033F000F0F00144384600F0A2F90028F0D16089CD
:1034000008F10109B8FBF0F100FB118117F8018008
:10341000B9FBF0F0216A0144384600F090F9002829
:10342000DED16089B9FBF0F100FB1190385C48EA0D
:10343000002015F0010F01D00609D1E7C0F30B06FB
:10344000CEE76089216A4008B5FBF0F001443846B8
:1034500000F075F90028C3D161896800B0FBF1F272
:1034600001FB120038440178407841EA0026B7E7B2
:103470006089216A8008B5FBF0F00144384600F00D
:103480005EF90028ACD16189A800B0FBF1F201FB24
:10349000120038440178C27841EA026182784078AB
:1034A000120442EA0020084320F0704698E700200A
:1034B000704710B404464FF0FF30D4F800C0BCF1A0
:1034C000000F0BD0614600E0491C0A78202A01D386
:1034D0003A2AF9D10A783A2A02D0002010BC704763
:1034E0009CF800300CF10102303B0A2BF6D28A42E4
:1034F000F4D1002BF2D11846491C216010BC704752
:1035000070B4002200F58050284CD0F800C002EBC7
:10351000420354F82350654509D104EB83038668C0
:103520005D68B54203D11B89C588AB4202D0521CED
:10353000022AECD3022A1AD1002200E0521C022AED
:1035400005D202EB420354F82330002BF6D1022AB5
:1035500017D002EB420344F823C004EB8303D0F8F6
:1035600008C0C3F804C0C08818810020588159B130
:1035700002EB420004EB8000408928B170BC0020BF
:10358000704770BC0020704711B14FF4807005E0A7
:1035900002EB420004EB80004089401C02EB420138
:1035A00004EB8101488170BC501C704764210020ED
:1035B0000246887ECB7E40EA032002F580521278D4
:1035C000032A05D10A7D497D42EA012140EA0140F2
:1035D0007047000070B5FCF7C9FFFEF7EFF9FDF783
:1035E000E5FDFDF72FFEFDF7D3FD00222EA12F48AC
:1035F000FFF78EF82E4C4FF0FF35D0B113222DA1DE
:103600002F48FFF7BDF8A0B12246111D26A0FEF7F6
:10361000E5FF70B1216801F5805148698978801E05
:103620004843FCF7BAFD2A46FCF7A0FDFCF7C2FDB3
:10363000A0602068616800F5805080784843FCF7FE
:10364000ACFD2A46FCF792FDFCF7B4FDE06018B92A
:103650001B491CA0FFF78EF9194923A0FFF78AF92F
:103660001748FEF7A5FF88B1012212A11448FFF701
:1036700087F820B90AE0214921A0FEF7F9F9104A9C
:1036800064211E48FFF71BF80028F4D10C48FEF710
:103690008FFF30B1012204A10020FFF739F800B1FB
:1036A000FEE7002070BD000000000000A400002024
:1036B0000400002066697273742E74787400000030
:1036C000D410002053544D333220534420436172B0
:1036D0006420492F4F204578616D706C65207669B4
:1036E00061205350490A0000536176652074686573
:1036F00020776F726C6421212100000000210020DE
:10370000257300000023521E06D310F8013B11F868
:1037100001CBB3EB0C03F6D018467047521E05D30D
:1037200011F8013B00F8013B521EF9D27047521EBE
:1037300004D3C9B200F8011B521EFBD270472DE919
:10374000F04107460C46002507F58056F06AA04276
:103750000FD0384600F070F9054655B9707801234E
:1037600022463946FEF7E4FE10B14FF0FF34012542
:10377000F4622846BDE8F0812DE9F05F07460D466A
:103780001646022D04D307F580546069A84202D87A
:103790000220BDE8F09F207806F0FF094FF0010BF2
:1037A000012806D0022844D003285CD00220BDE8BE
:1037B000F09F05EB55086089216AB8FBF0F00144E1
:1037C0003846FFF7BCFF0028F1D1608908F1010AF3
:1037D000B8FBF0F100FB1180384415F0010F03D065
:1037E000017869F31F1100E03146017084F804B0DC
:1037F0006089216ABAFBF0F001443846FFF79FFF69
:103800000028D4D16189BAFBF1F201FB12A139443D
:1038100015F0010F02D0C6F3071205E00A78C6F3CF
:10382000032302F0F0021A430A7084F804B0BDE8E2
:10383000F09F6089216A4008B5FBF0F001443846EA
:10384000FFF77DFF0028F2D162896900B1FBF2F336
:1038500002FB1311394481F80090320A4A7084F84F
:1038600004B0BDE8F09F6089216A8008B5FBF0F0E4
:1038700001443846FFF763FF0028F2D16289A900AE
:10388000B1FBF2F302FB131139444FF07043CA78D5
:1038900003EA026232430A70130A4B70130C8B70F6
:1038A000120ECA7084F804B0BDE8F09FF8B5044663
:1038B0000E460A2E03D10D212046FFF7F7FF606860
:1038C000002816DB451C204406733D2D0DDB6B469E
:1038D0002A4604F10C012068FFF7A3F90098A842DA
:1038E00001D1002501E04FF0FF356560A068401C64
:1038F000A060F8BD2DE9F04180460E46022E04D3AB
:1039000008F580546069B04201D8022726E00027FC
:1039100031464046FFF74DFD0546FDB1012D0BD068
:10392000B5F1FF3F0AD0002231464046FFF724FFA1
:103930000746380012D103E002270FE001270DE00F
:103940002069B0F1FF3F05D0401C2061607940F054
:10395000010060712E466069B042D9D83846BDE892
:10396000F08181760A0AC2760A0C0275090E417549
:103970007047014600200B22430803EBC01011F8EA
:10398000013B1844C0B2521EF6D1704770B50446D0
:10399000204600F051F8064630004BD104F5805522
:1039A000287803283FD1687901283CD16A89002111
:1039B0002046FFF7BCFE552084F8FE01AA2084F8BB
:1039C000FF015220207060706120A0704121E170E1
:1039D000722284F8E42184F8E52184F8E61184F861
:1039E000E701286984F8E801010A84F8E911010C6B
:1039F00084F8EA11000E84F8EB01E86884F8EC0121
:103A0000010A84F8ED11010C84F8EE11000E84F81F
:103A1000EF01E869421CEA62687801232146FEF75B
:103A2000A3FD00206871002268781146FEF772FD40
:103A300000B10126304670BD2DE9F04180460027D7
:103A400008F58054207900281ED0E66A60780123AA
:103A500032464146FEF788FD08B1012714E00020F8
:103A60002071206AA169301A88420DD2E578022DB2
:103A70000AD3A06906446078012332464146FEF726
:103A800073FD6D1E022DF4D23846BDE8F08110B5ED
:103A9000002811D000F58051086868B100F5805009
:103AA00002784AB1C28889888A4205D14078FEF7F7
:103AB0004FFD10F0010F01D0092010BD002010BDF6
:103AC000010202030405060708090A0B0C0D0E0F7C
:103AD00010100000000000000000010203040607AF
:103AE0000809809A90B68EB78F80D2D3D4D8D7DE0B
:103AF0008E8F909292E299E3EAEB59999A9D9C9D60
:103B00009E9FB5D6E0E9A5A5A6A7A8A9AAABAC211A
:103B1000AEAFB0B1B2B3B4B5B6B7B8B9BABBBCBD4D
:103B2000BEBFC0C1C2C3C4C5C7C7C8C9CACBCCCD3C
:103B3000CECFD0D1D2D3D4D5D6D7D8D9DADBDCDD2D
:103B4000DEDFE0E1E2E3E5E5E6E7E7E9EAEBEDED1C
:103B5000EEEFF0F1F2F3F4F5F6F7F8F9FAFBFCFD0D
:103B6000FEFF01030507090E10121416181C1E0093
:103B70000004000200018000400020001000080046
:103B80000400020000000080004000200010000837
:103B9000004000200010000800040002C700FC00E4
:103BA000E900E200E400E000E500E700EA00EB00E5
:103BB000E800EF00EE00EC00C400C500C900E6001C
:103BC000C600F400F600F200FB00F900FF00D6008A
:103BD000DC00F800A300D800D7009201E100ED005E
:103BE000F300FA00F100D100AA00BA00BF00AE0055
:103BF000AC00BD00BC00A100AB00BB00912592252C
:103C0000932502252425C100C200C000A900632518
:103C1000512557255D25A200A50010251425342522
:103C20002C251C2500253C25E300C3005A255425DE
:103C300069256625602550256C25A400F000D0007C
:103C4000CA00CB00C8003101CD00CE00CF0018253E
:103C50000C2588258425A600CC008025D300DF0014
:103C6000D400D200F500D500B500FE00DE00DA0079
:103C7000DB00D900FD00DD00AF00B400AD00B100F5
:103C80001720BE00B600A700F700B800B000A800DB
:103C9000B700B900B300B200A025A0006100620027
:103CA00063006400650066006700680069006A00E0
:103CB0006B006C006D006E006F0070007100720090
:103CC00073007400750076007700780079007A0040
:103CD000A100A200A300A500AC00AF00E000E1003D
:103CE000E200E300E400E500E600E700E800E900A8
:103CF000EA00EB00EC00ED00EE00EF00F000F10058
:103D0000F200F300F400F500F600F800F900FA0004
:103D1000FB00FC00FD00FE00FF00010103010501A6
:103D2000070109010B010D010F011101130115011B
:103D3000170119011B011D011F012101230125018B
:103D4000270129012B012D012F01310133013501FB
:103D500037013A013C013E01400142014401460164
:103D600048014B014D014F015101530155015701CC
:103D700059015B015D015F0161016301650167013B
:103D800069016B016D016F017101730175017701AB
:103D90007A017C017E019201B103B203B303B40343
:103DA000B503B603B703B803B903BA03BB03BC0337
:103DB000BD03BE03BF03C003C103C303C403C503E4
:103DC000C603C703C803C903CA033004310432045D
:103DD00033043404350436043704380439043A040F
:103DE0003B043C043D043E043F04400441044204BF
:103DF00043044404450446044704480449044A046F
:103E00004B044C044D044E044F045104520453041B
:103E10005404550456045704580459045A045B04C6
:103E20005C045E045F04702171217221732174218E
:103E3000752176217721782179217A217B217C21B6
:103E40007D217E217F2141FF42FF43FF44FF45FF4B
:103E500046FF47FF48FF49FF4AFF4BFF4CFF4DFF1E
:103E60004EFF4FFF50FF51FF52FF53FF54FF55FFCE
:103E700056FF57FF58FF59FF5AFF0000410042000C
:103E800043004400450046004700480049004A00FE
:103E90004B004C004D004E004F00500051005200AE
:103EA00053005400550056005700580059005A005E
:103EB0002100E0FFE1FFE5FFE2FFE3FFC000C100FA
:103EC000C200C300C400C500C600C700C800C900C6
:103ED000CA00CB00CC00CD00CE00CF00D000D10076
:103EE000D200D300D400D500D600D800D900DA0023
:103EF000DB00DC00DD00DE007801000102010401CE
:103F0000060108010A010C010E0110011201140141
:103F1000160118011A011C011E01200122012401B1
:103F2000260128012A012C012E0130013201340121
:103F3000360139013B013D013F014101430145018A
:103F400047014A014C014E015001520154015601F2
:103F500058015A015C015E01600162016401660161
:103F600068016A016C016E017001720174017601D1
:103F700079017B017D0191019103920393039403E5
:103F8000950396039703980399039A039B039C0355
:103F90009D039E039F03A003A103A303A403A50302
:103FA000A603A703A803A903AA031004110412047B
:103FB00013041404150416041704180419041A042D
:103FC0001B041C041D041E041F04200421042204DD
:103FD00023042404250426042704280429042A048D
:103FE0002B042C042D042E042F04010402040304CA
:103FF0000404050406040704080409040A040B0465
:104000000C040E040F0460216121622163216421EC
:10401000652166216721682169216A216B216C2154
:104020006D216E216F2121FF22FF23FF24FF25FF39
:1040300026FF27FF28FF29FF2AFF2BFF2CFF2DFF3C
:104040002EFF2FFF30FF31FF32FF33FF34FF35FFEC
:1040500036FF37FF38FF39FF3AFF00007C40000889
:10406000000000204C000000901A0008C840000822
:104070004C0000203C270000A01A000801000000AE
:104080000000000000000000000000000000000030
:104090005D1A0008691A0008651A00086D1A000800
:1040A000611A00080000000000000000010000008C
:1040B000100000000000000000A24A040000000000
:0840C0000000000000000000F8
:04000005080000ED02
:00000001FF
