:020000040800F2
:10000000780600206D0100087501000877010008DE
:10001000790100087B0100087D0100080000000054
:100020000000000000000000000000007F01000848
:10003000810100080000000083010008850100081C
:100040008701000887010008870100088701000870
:100050008701000887010008870100088701000860
:100060008701000887010008870100088701000850
:100070008701000887010008870100088701000840
:100080008701000887010008870100088701000830
:100090008701000887010008870100088701000820
:1000A0008701000887010008870100088701000810
:1000B0008701000887010008870100088701000800
:1000C00087010008870100088701000887010008F0
:1000D00087010008870100088701000887010008E0
:1000E00087010008870100088701000800F002F876
:1000F00000F02CF80AA090E8000C82448344AAF196
:100100000107DA4501D100F021F8AFF2090EBAE893
:100110000F0013F0010F18BFFB1A43F0010318473B
:10012000D0070000E007000000230024002500267F
:10013000103A28BF78C1FBD8520728BF30C148BF4A
:100140000B6070471FB51FBD10B510BD00F031F832
:100150001146FFF7F7FF00F0BBFB00F04FF803B4C8
:10016000FFF7F2FF03BC00F057F800000948804792
:1001700009480047FEE7FEE7FEE7FEE7FEE7FEE789
:10018000FEE7FEE7FEE7FEE704480549054A064BA1
:10019000704700007D060008ED0000087800002090
:1001A000780600207802002078020020704770470F
:1001B0007047754600F02CF8AE4605006946534678
:1001C00020F00700854618B020B5FFF7DDFFBDE839
:1001D00020404FF000064FF000074FF000084FF0AE
:1001E000000B21F00701AC46ACE8C009ACE8C0093F
:1001F000ACE8C009ACE8C0098D46704710B50446AC
:10020000AFF300802046BDE81040FFF7A8BF000014
:10021000004870471400002001491820ABBEFEE7DB
:1002200026000200704721B1026842F0010202601C
:1002300004E002684FF6FE731A400260704710B582
:100240000022026847F6F0739A430C6A8B682343D6
:100250000C6923434C6923438C692343CC692343B2
:100260004C6A23438C6A23431A430260CB68436081
:100270000B6883604B68C36010BD000008B50121A6
:100280000C2000F0E9F84FF42040ADF80000042005
:100290008DF8030002208DF802006946164800F030
:1002A0002FF84FF48040ADF8000018208DF80300BF
:1002B00002208DF8020069460F4800F021F84FF443
:1002C0008050ADF8000028208DF8030002208DF842
:1002D00002006946084800F013F84FF47060ADF86A
:1002E000000018208DF8030002208DF802006946F6
:1002F000024800F005F808BD000C0140000801406C
:100300002DE9F041024600250026002000230024AC
:10031000002791F803C00CF00F0591F803C00CF012
:10032000100CBCF1000F03D091F802C04CEA050597
:1003300091F800C0BCF1000F31D0146800202BE010
:100340004FF0010C0CFA00F3B1F800C00CEA030600
:100350009E4220D183004FF00F0C0CFA03F7BC43F0
:1003600005FA03FC4CEA040491F803C0BCF1280F21
:1003700006D14FF0010C0CFA00FCC2F814C00AE0E0
:1003800091F803C0BCF1480F05D14FF0010C0CFAF5
:1003900000FCC2F810C0401C0828D1D31460B1F88A
:1003A00000C0BCF1FF0F34DD546800202EE000F1E6
:1003B000080C4FF0010808FA0CF3B1F800C00CEA81
:1003C00003069E4221D183004FF00F0C0CFA03F775
:1003D000BC4305FA03FC4CEA040491F803C0BCF1E9
:1003E000280F05D100F1080C08FA0CF8C2F81480A7
:1003F00091F803C0BCF1480F07D100F1080C4FF091
:10040000010808FA0CF8C2F81080401C0828CED366
:100410005460BDE8F081000029B1064A52690243E8
:10042000044B5A6104E0034A52698243014B5A610A
:10043000704700000010024029B1064AD269024309
:10044000044BDA6104E0034AD2698243014BDA616A
:10045000704700000010024029B1064A9269024329
:10046000044B9A6104E0034A92698243014B9A610A
:10047000704700000010024021B1028842F04002A3
:10048000028004E002884FF6BF731A400280704772
:100490001AB183880B43838002E083888B43838077
:1004A000704710B50022028802F441520B884C8834
:1004B00023438C882343CC8823430C8923434C89D2
:1004C00023438C892343CC8923431A430280838BA3
:1004D0004FF2FF74234083830B8A038210BD000018
:1004E00000B591B001210846FFF796FF01210846AB
:1004F000FFF7B2FF01218803FFF79EFF0020ADF850
:100500000600ADF804001820ADF810000020ADF88A
:100510000A00ADF80C00ADF808008020ADF812001C
:100520000720ADF814004FF40070ADF80E0001A9DB
:100530001548FFF7B6FF01211348FFF79DFF012083
:1005400009900020089010901048079000200D900E
:1005500080200B9000200E900B480C30069000205D
:100560000C900A904FF480500F9006A90848FFF7AE
:1005700066FE01210648FFF756FE01221146024899
:10058000FFF786FF11B000BD0038004000000020DA
:100590004400024010B500F001F810BD0CB5002079
:1005A000019000903348006840F480303149086081
:1005B00000BF3048006800F4003000900198401CF3
:1005C0000190009818B90198B0F5A06FF1D12948B1
:1005D000006800F4003010B10120009001E000201C
:1005E00000900098012843D12348006840F0100093
:1005F000214908600846006820F0070008600846A6
:10060000006840F0020008601A48406819494860D4
:100610000846406848600846406840F4806048608A
:100620000846406820F47C1048600846406840F462
:10063000E81048600846006840F08070086000BF1D
:100640000C48006800F000700028F9D009484068A4
:1006500020F00300074948600846406840F0020067
:10066000486000BF0348406800F00C000828F9D13A
:100670000CBD0000001002400020024010B51348DD
:10068000006840F0010011490860084640681049C0
:1006900008400E494860084600680E4908400B496A
:1006A00008600846006820F480200860084640681A
:1006B00020F4FE0048604FF41F008860FFF76AFFD7
:1006C0004FF000600449086010BD000000100240B7
:1006D0000000FFF8FFFFF6FE08ED00E000B587B070
:1006E0000121C802FFF7B8FE44F61F60ADF8140000
:1006F00040F2CF20ADF810000020ADF81600ADF8A4
:10070000120004A9104800F091F86020ADF8000034
:100710000120ADF8020042F21070ADF80600002092
:10072000ADF808006946084800F028F80821064896
:1007300000F070F80121044800F008F80121024897
:1007400000F010F807B000BD002C014021B1028874
:1007500042F08002028004E002884FF67F731A4064
:100760000280704721B1028842F00102028004E059
:1007700002884FF6FE731A400280704770B500245D
:1007800000220023058C4FF6FE7635400584028C4E
:100790008388048B4FF68F752C40B51E2C400D8836
:1007A0002C43751E2A400D892A434D882A43144D37
:1007B000A8420BD0134DA84208D0134DA84205D033
:1007C000124DA84202D0124DA84213D14FF6F77530
:1007D0002A404D892A434FF6FB752A408D882A43CB
:1007E0004FF6FF652B404FF6FF552B408D892B436D
:1007F000CD892B4383800483CD888586028470BD98
:10080000002C014000340140004001400044014000
:10081000004801400A460021018B4FF6F77319404A
:1008200011430183704781867047000000220288CF
:100830001D4B98420ED01D4B98420BD0B0F1804F0B
:1008400008D01B4B984205D01A4B984202D01A4B45
:10085000984204D14FF68F731A404B881A43174BB6
:10086000984207D0164B984204D04FF6FF431A40E7
:10087000CB881A4302808B8883850B8803850A4BBB
:1008800098420BD0094B984208D00E4B984205D0A5
:100890000D4B984202D00D4B984201D10B7A038642
:1008A0000123838270470000002C01400034014086
:1008B0000004004000080040000C00400010004010
:1008C0000014004000400140004401400048014045
:1008D000FFF7D4FCFFF704FEFFF700FF04E042F24D
:1008E00028310248FFF79FFFF9E70000002C014084
:1008F0000009000800000020780600002801000818
:040000050800016D81
:00000001FF
